{"contracts/ReportRegistry.sol":{"ReportRegistry":{"abi":[{"anonymous":false,"inputs":[{"indexed":true,"internalType":"bytes32","name":"id","type":"bytes32"},{"indexed":false,"internalType":"uint8","name":"riskScore","type":"uint8"}],"name":"HighRiskAlert","type":"event"},{"anonymous":false,"inputs":[{"indexed":true,"internalType":"bytes32","name":"id","type":"bytes32"},{"indexed":false,"internalType":"uint256","name":"timestamp","type":"uint256"},{"indexed":false,"internalType":"uint8","name":"riskScore","type":"uint8"},{"indexed":false,"internalType":"string","name":"ipfsHash","type":"string"}],"name":"ReportFiled","type":"event"},{"anonymous":false,"inputs":[{"indexed":true,"internalType":"bytes32","name":"id","type":"bytes32"},{"indexed":false,"internalType":"enum ReportRegistry.Status","name":"oldStatus","type":"uint8"},{"indexed":false,"internalType":"enum ReportRegistry.Status","name":"newStatus","type":"uint8"},{"indexed":false,"internalType":"uint256","name":"blockNumber","type":"uint256"}],"name":"StatusUpdated","type":"event"},{"inputs":[{"internalType":"bytes32","name":"","type":"bytes32"},{"internalType":"uint256","name":"","type":"uint256"}],"name":"auditLog","outputs":[{"internalType":"enum ReportRegistry.Status","name":"from","type":"uint8"},{"internalType":"enum ReportRegistry.Status","name":"to","type":"uint8"},{"internalType":"uint256","name":"blockNumber","type":"uint256"},{"internalType":"uint256","name":"timestamp","type":"uint256"}],"stateMutability":"view","type":"function"},{"inputs":[],"name":"blocklistMerkleRoot","outputs":[{"internalType":"bytes32","name":"","type":"bytes32"}],"stateMutability":"view","type":"function"},{"inputs":[{"internalType":"string","name":"ipfsHash","type":"string"},{"internalType":"uint8","name":"riskScore","type":"uint8"}],"name":"fileReport","outputs":[{"internalType":"bytes32","name":"","type":"bytes32"}],"stateMutability":"nonpayable","type":"function"},{"inputs":[],"name":"getAllReportIds","outputs":[{"internalType":"bytes32[]","name":"","type":"bytes32[]"}],"stateMutability":"view","type":"function"},{"inputs":[{"internalType":"bytes32","name":"id","type":"bytes32"}],"name":"getAuditLog","outputs":[{"components":[{"internalType":"enum ReportRegistry.Status","name":"from","type":"uint8"},{"internalType":"enum ReportRegistry.Status","name":"to","type":"uint8"},{"internalType":"uint256","name":"blockNumber","type":"uint256"},{"internalType":"uint256","name":"timestamp","type":"uint256"}],"internalType":"struct ReportRegistry.AuditEntry[]","name":"","type":"tuple[]"}],"stateMutability":"view","type":"function"},{"inputs":[],"name":"getTotalReports","outputs":[{"internalType":"uint256","name":"","type":"uint256"}],"stateMutability":"view","type":"function"},{"inputs":[{"internalType":"bytes32","name":"domainHash","type":"bytes32"},{"internalType":"bytes32[]","name":"proof","type":"bytes32[]"}],"name":"isDomainFlagged","outputs":[{"internalType":"bool","name":"","type":"bool"}],"stateMutability":"view","type":"function"},{"inputs":[{"internalType":"uint256","name":"","type":"uint256"}],"name":"reportIds","outputs":[{"internalType":"bytes32","name":"","type":"bytes32"}],"stateMutability":"view","type":"function"},{"inputs":[{"internalType":"bytes32","name":"","type":"bytes32"}],"name":"reports","outputs":[{"internalType":"bytes32","name":"id","type":"bytes32"},{"internalType":"uint256","name":"timestamp","type":"uint256"},{"internalType":"string","name":"ipfsHash","type":"string"},{"internalType":"uint8","name":"riskScore","type":"uint8"},{"internalType":"enum ReportRegistry.Status","name":"status","type":"uint8"},{"internalType":"bool","name":"exists","type":"bool"}],"stateMutability":"view","type":"function"},{"inputs":[{"internalType":"bytes32","name":"root","type":"bytes32"}],"name":"setBlocklistRoot","outputs":[],"stateMutability":"nonpayable","type":"function"},{"inputs":[{"internalType":"bytes32","name":"id","type":"bytes32"},{"internalType":"enum ReportRegistry.Status","name":"newStatus","type":"uint8"}],"name":"updateStatus","outputs":[],"stateMutability":"nonpayable","type":"function"}],"evm":{"bytecode":{"linkReferences":{},"object":"608060405234801561001057600080fd5b50611985806100206000396000f3fe608060405234801561001057600080fd5b50600436106100a95760003560e01c80636ef520b4116100715780636ef520b41461015257806376b811241461018257806384a8c38c146101b557806387cc66de146101e5578063b39c489714610215578063d4e995001461024a576100a9565b8063054372ed146100ae578063131eb28e146100ca5780632c47ad37146100e8578063413faf22146101065780634cd9943314610136575b600080fd5b6100c860048036038101906100c39190610b7c565b610268565b005b6100d2610466565b6040516100df9190610c7a565b60405180910390f35b6100f06104be565b6040516100fd9190610cab565b60405180910390f35b610120600480360381019061011b9190610cc6565b6104c4565b60405161012d9190610e87565b60405180910390f35b610150600480360381019061014b9190610cc6565b6105c0565b005b61016c60048036038101906101679190610f47565b6105ca565b6040516101799190610cab565b60405180910390f35b61019c60048036038101906101979190610fd3565b6108b1565b6040516101ac9493929190611031565b60405180910390f35b6101cf60048036038101906101ca91906110cc565b610918565b6040516101dc9190611147565b60405180910390f35b6101ff60048036038101906101fa9190611162565b6109fb565b60405161020c9190610cab565b60405180910390f35b61022f600480360381019061022a9190610cc6565b610a1f565b6040516102419695949392919061122e565b60405180910390f35b610252610b0a565b60405161025f9190611296565b60405180910390f35b60008083815260200190815260200160002060030160029054906101000a900460ff166102ca576040517f08c379a00000000000000000000000000000000000000000000000000000000081526004016102c1906112fd565b60405180910390fd5b600080600084815260200190815260200160002060030160019054906101000a900460ff1690508160008085815260200190815260200160002060030160016101000a81548160ff0219169083600381111561032957610328610d1f565b5b021790555060016000848152602001908152602001600020604051806080016040528083600381111561035f5761035e610d1f565b5b815260200184600381111561037757610376610d1f565b5b815260200143815260200142815250908060018154018082558091505060019003906000526020600020906003020160009091909190915060008201518160000160006101000a81548160ff021916908360038111156103da576103d9610d1f565b5b021790555060208201518160000160016101000a81548160ff0219169083600381111561040a57610409610d1f565b5b021790555060408201518160010155606082015181600201555050827f9ef7966ce15872a318ba71ffb271ab358c5847e8022f4121cd3687626b4f33db8284436040516104599392919061131d565b60405180910390a2505050565b606060028054806020026020016040519081016040528092919081815260200182805480156104b457602002820191906000526020600020905b8154815260200190600101908083116104a0575b5050505050905090565b60035481565b606060016000838152602001908152602001600020805480602002602001604051908101604052809291908181526020016000905b828210156105b557838290600052602060002090600302016040518060800160405290816000820160009054906101000a900460ff16600381111561054157610540610d1f565b5b600381111561055357610552610d1f565b5b81526020016000820160019054906101000a900460ff16600381111561057c5761057b610d1f565b5b600381111561058e5761058d610d1f565b5b815260200160018201548152602001600282015481525050815260200190600101906104f9565b505050509050919050565b8060038190555050565b600060648260ff161115610613576040517f08c379a000000000000000000000000000000000000000000000000000000000815260040161060a906113a0565b60405180910390fd5b60004285854460405160200161062c9493929190611420565b60405160208183030381529060405280519060200120905060008082815260200190815260200160002060030160029054906101000a900460ff16156106a7576040517f08c379a000000000000000000000000000000000000000000000000000000000815260040161069e906114a7565b60405180910390fd5b600060558460ff1610156106bc5760006106bf565b60025b90506040518060c0016040528083815260200142815260200187878080601f016020809104026020016040519081016040528093929190818152602001838380828437600081840152601f19601f8201169050808301925050505050505081526020018560ff16815260200182600381111561073e5761073d610d1f565b5b815260200160011515815250600080848152602001908152602001600020600082015181600001556020820151816001015560408201518160020190816107859190611702565b5060608201518160030160006101000a81548160ff021916908360ff16021790555060808201518160030160016101000a81548160ff021916908360038111156107d2576107d1610d1f565b5b021790555060a08201518160030160026101000a81548160ff0219169083151502179055509050506002829080600181540180825580915050600190039060005260206000200160009091909190915055817fc1413a272fa0fdb1b689452b896fca2fb94c160b6f9009640444e639719e2310428689896040516108599493929190611801565b60405180910390a260558460ff16106108a557817f23678b3fd467bd897df163d2b35076cb55e5fef82894fcc85c2b9279c7b3e8988560405161089c9190611841565b60405180910390a25b81925050509392505050565b600160205281600052604060002081815481106108cd57600080fd5b9060005260206000209060030201600091509150508060000160009054906101000a900460ff16908060000160019054906101000a900460ff16908060010154908060020154905084565b60008084905060005b848490508110156109eb5784848281811061093f5761093e61185c565b5b9050602002013582106109935784848281811061095f5761095e61185c565b5b90506020020135826040516020016109789291906118ac565b604051602081830303815290604052805190602001206109d6565b818585838181106109a7576109a661185c565b5b905060200201356040516020016109bf9291906118ac565b604051602081830303815290604052805190602001205b915080806109e390611907565b915050610921565b5060035481149150509392505050565b60028181548110610a0b57600080fd5b906000526020600020016000915090505481565b6000602052806000526040600020600091509050806000015490806001015490806002018054610a4e90611525565b80601f0160208091040260200160405190810160405280929190818152602001828054610a7a90611525565b8015610ac75780601f10610a9c57610100808354040283529160200191610ac7565b820191906000526020600020905b815481529060010190602001808311610aaa57829003601f168201915b5050505050908060030160009054906101000a900460ff16908060030160019054906101000a900460ff16908060030160029054906101000a900460ff16905086565b6000600280549050905090565b600080fd5b600080fd5b6000819050919050565b610b3481610b21565b8114610b3f57600080fd5b50565b600081359050610b5181610b2b565b92915050565b60048110610b6457600080fd5b50565b600081359050610b7681610b57565b92915050565b60008060408385031215610b9357610b92610b17565b5b6000610ba185828601610b42565b9250506020610bb285828601610b67565b9150509250929050565b600081519050919050565b600082825260208201905092915050565b6000819050602082019050919050565b610bf181610b21565b82525050565b6000610c038383610be8565b60208301905092915050565b6000602082019050919050565b6000610c2782610bbc565b610c318185610bc7565b9350610c3c83610bd8565b8060005b83811015610c6d578151610c548882610bf7565b9750610c5f83610c0f565b925050600181019050610c40565b5085935050505092915050565b60006020820190508181036000830152610c948184610c1c565b905092915050565b610ca581610b21565b82525050565b6000602082019050610cc06000830184610c9c565b92915050565b600060208284031215610cdc57610cdb610b17565b5b6000610cea84828501610b42565b91505092915050565b600081519050919050565b600082825260208201905092915050565b6000819050602082019050919050565b7f4e487b7100000000000000000000000000000000000000000000000000000000600052602160045260246000fd5b60048110610d5f57610d5e610d1f565b5b50565b6000819050610d7082610d4e565b919050565b6000610d8082610d62565b9050919050565b610d9081610d75565b82525050565b6000819050919050565b610da981610d96565b82525050565b608082016000820151610dc56000850182610d87565b506020820151610dd86020850182610d87565b506040820151610deb6040850182610da0565b506060820151610dfe6060850182610da0565b50505050565b6000610e108383610daf565b60808301905092915050565b6000602082019050919050565b6000610e3482610cf3565b610e3e8185610cfe565b9350610e4983610d0f565b8060005b83811015610e7a578151610e618882610e04565b9750610e6c83610e1c565b925050600181019050610e4d565b5085935050505092915050565b60006020820190508181036000830152610ea18184610e29565b905092915050565b600080fd5b600080fd5b600080fd5b60008083601f840112610ece57610ecd610ea9565b5b8235905067ffffffffffffffff811115610eeb57610eea610eae565b5b602083019150836001820283011115610f0757610f06610eb3565b5b9250929050565b600060ff82169050919050565b610f2481610f0e565b8114610f2f57600080fd5b50565b600081359050610f4181610f1b565b92915050565b600080600060408486031215610f6057610f5f610b17565b5b600084013567ffffffffffffffff811115610f7e57610f7d610b1c565b5b610f8a86828701610eb8565b93509350506020610f9d86828701610f32565b9150509250925092565b610fb081610d96565b8114610fbb57600080fd5b50565b600081359050610fcd81610fa7565b92915050565b60008060408385031215610fea57610fe9610b17565b5b6000610ff885828601610b42565b925050602061100985828601610fbe565b9150509250929050565b61101c81610d75565b82525050565b61102b81610d96565b82525050565b60006080820190506110466000830187611013565b6110536020830186611013565b6110606040830185611022565b61106d6060830184611022565b95945050505050565b60008083601f84011261108c5761108b610ea9565b5b8235905067ffffffffffffffff8111156110a9576110a8610eae565b5b6020830191508360208202830111156110c5576110c4610eb3565b5b9250929050565b6000806000604084860312156110e5576110e4610b17565b5b60006110f386828701610b42565b935050602084013567ffffffffffffffff81111561111457611113610b1c565b5b61112086828701611076565b92509250509250925092565b60008115159050919050565b6111418161112c565b82525050565b600060208201905061115c6000830184611138565b92915050565b60006020828403121561117857611177610b17565b5b600061118684828501610fbe565b91505092915050565b600081519050919050565b600082825260208201905092915050565b60005b838110156111c95780820151818401526020810190506111ae565b60008484015250505050565b6000601f19601f8301169050919050565b60006111f18261118f565b6111fb818561119a565b935061120b8185602086016111ab565b611214816111d5565b840191505092915050565b61122881610f0e565b82525050565b600060c0820190506112436000830189610c9c565b6112506020830188611022565b818103604083015261126281876111e6565b9050611271606083018661121f565b61127e6080830185611013565b61128b60a0830184611138565b979650505050505050565b60006020820190506112ab6000830184611022565b92915050565b7f5265706f7274206e6f7420666f756e6400000000000000000000000000000000600082015250565b60006112e760108361119a565b91506112f2826112b1565b602082019050919050565b60006020820190508181036000830152611316816112da565b9050919050565b60006060820190506113326000830186611013565b61133f6020830185611013565b61134c6040830184611022565b949350505050565b7f53636f7265206f7574206f662072616e67650000000000000000000000000000600082015250565b600061138a60128361119a565b915061139582611354565b602082019050919050565b600060208201905081810360008301526113b98161137d565b9050919050565b6000819050919050565b6113db6113d682610d96565b6113c0565b82525050565b600081905092915050565b82818337600083830152505050565b600061140783856113e1565b93506114148385846113ec565b82840190509392505050565b600061142c82876113ca565b60208201915061143d8285876113fb565b915061144982846113ca565b60208201915081905095945050505050565b7f4475706c6963617465207265706f727400000000000000000000000000000000600082015250565b600061149160108361119a565b915061149c8261145b565b602082019050919050565b600060208201905081810360008301526114c081611484565b9050919050565b7f4e487b7100000000000000000000000000000000000000000000000000000000600052604160045260246000fd5b7f4e487b7100000000000000000000000000000000000000000000000000000000600052602260045260246000fd5b6000600282049050600182168061153d57607f821691505b6020821081036115505761154f6114f6565b5b50919050565b60008190508160005260206000209050919050565b60006020601f8301049050919050565b600082821b905092915050565b6000600883026115b87fffffffffffffffffffffffffffffffffffffffffffffffffffffffffffffffff8261157b565b6115c2868361157b565b95508019841693508086168417925050509392505050565b6000819050919050565b60006115ff6115fa6115f584610d96565b6115da565b610d96565b9050919050565b6000819050919050565b611619836115e4565b61162d61162582611606565b848454611588565b825550505050565b600090565b611642611635565b61164d818484611610565b505050565b5b818110156116715761166660008261163a565b600181019050611653565b5050565b601f8211156116b65761168781611556565b6116908461156b565b8101602085101561169f578190505b6116b36116ab8561156b565b830182611652565b50505b505050565b600082821c905092915050565b60006116d9600019846008026116bb565b1980831691505092915050565b60006116f283836116c8565b9150826002028217905092915050565b61170b8261118f565b67ffffffffffffffff811115611724576117236114c7565b5b61172e8254611525565b611739828285611675565b600060209050601f83116001811461176c576000841561175a578287015190505b61176485826116e6565b8655506117cc565b601f19841661177a86611556565b60005b828110156117a25784890151825560018201915060208501945060208101905061177d565b868310156117bf57848901516117bb601f8916826116c8565b8355505b6001600288020188555050505b505050505050565b60006117e0838561119a565b93506117ed8385846113ec565b6117f6836111d5565b840190509392505050565b60006060820190506118166000830187611022565b611823602083018661121f565b81810360408301526118368184866117d4565b905095945050505050565b6000602082019050611856600083018461121f565b92915050565b7f4e487b7100000000000000000000000000000000000000000000000000000000600052603260045260246000fd5b6000819050919050565b6118a66118a182610b21565b61188b565b82525050565b60006118b88285611895565b6020820191506118c88284611895565b6020820191508190509392505050565b7f4e487b7100000000000000000000000000000000000000000000000000000000600052601160045260246000fd5b600061191282610d96565b91507fffffffffffffffffffffffffffffffffffffffffffffffffffffffffffffffff8203611944576119436118d8565b5b60018201905091905056fea26469706673582212207d862f8cd93d952f3d9230175d490d655990f1ab49f13f5d9f04df6a28ca305764736f6c63430008130033","opcodes":"PUSH1 0x80 PUSH1 0x40 MSTORE CALLVALUE DUP1 ISZERO PUSH2 0x10 JUMPI PUSH1 0x0 DUP1 REVERT JUMPDEST POP PUSH2 0x1985 DUP1 PUSH2 0x20 PUSH1 0x0 CODECOPY PUSH1 0x0 RETURN INVALID PUSH1 0x80 PUSH1 0x40 MSTORE CALLVALUE DUP1 ISZERO PUSH2 0x10 JUMPI PUSH1 0x0 DUP1 REVERT JUMPDEST POP PUSH1 0x4 CALLDATASIZE LT PUSH2 0xA9 JUMPI PUSH1 0x0 CALLDATALOAD PUSH1 0xE0 SHR DUP1 PUSH4 0x6EF520B4 GT PUSH2 0x71 JUMPI DUP1 PUSH4 0x6EF520B4 EQ PUSH2 0x152 JUMPI DUP1 PUSH4 0x76B81124 EQ PUSH2 0x182 JUMPI DUP1 PUSH4 0x84A8C38C EQ PUSH2 0x1B5 JUMPI DUP1 PUSH4 0x87CC66DE EQ PUSH2 0x1E5 JUMPI DUP1 PUSH4 0xB39C4897 EQ PUSH2 0x215 JUMPI DUP1 PUSH4 0xD4E99500 EQ PUSH2 0x24A JUMPI PUSH2 0xA9 JUMP JUMPDEST DUP1 PUSH4 0x54372ED EQ PUSH2 0xAE JUMPI DUP1 PUSH4 0x131EB28E EQ PUSH2 0xCA JUMPI DUP1 PUSH4 0x2C47AD37 EQ PUSH2 0xE8 JUMPI DUP1 PUSH4 0x413FAF22 EQ PUSH2 0x106 JUMPI DUP1 PUSH4 0x4CD99433 EQ PUSH2 0x136 JUMPI JUMPDEST PUSH1 0x0 DUP1 REVERT JUMPDEST PUSH2 0xC8 PUSH1 0x4 DUP1 CALLDATASIZE SUB DUP2 ADD SWAP1 PUSH2 0xC3 SWAP2 SWAP1 PUSH2 0xB7C JUMP JUMPDEST PUSH2 0x268 JUMP JUMPDEST STOP JUMPDEST PUSH2 0xD2 PUSH2 0x466 JUMP JUMPDEST PUSH1 0x40 MLOAD PUSH2 0xDF SWAP2 SWAP1 PUSH2 0xC7A JUMP JUMPDEST PUSH1 0x40 MLOAD DUP1 SWAP2 SUB SWAP1 RETURN JUMPDEST PUSH2 0xF0 PUSH2 0x4BE JUMP JUMPDEST PUSH1 0x40 MLOAD PUSH2 0xFD SWAP2 SWAP1 PUSH2 0xCAB JUMP JUMPDEST PUSH1 0x40 MLOAD DUP1 SWAP2 SUB SWAP1 RETURN JUMPDEST PUSH2 0x120 PUSH1 0x4 DUP1 CALLDATASIZE SUB DUP2 ADD SWAP1 PUSH2 0x11B SWAP2 SWAP1 PUSH2 0xCC6 JUMP JUMPDEST PUSH2 0x4C4 JUMP JUMPDEST PUSH1 0x40 MLOAD PUSH2 0x12D SWAP2 SWAP1 PUSH2 0xE87 JUMP JUMPDEST PUSH1 0x40 MLOAD DUP1 SWAP2 SUB SWAP1 RETURN JUMPDEST PUSH2 0x150 PUSH1 0x4 DUP1 CALLDATASIZE SUB DUP2 ADD SWAP1 PUSH2 0x14B SWAP2 SWAP1 PUSH2 0xCC6 JUMP JUMPDEST PUSH2 0x5C0 JUMP JUMPDEST STOP JUMPDEST PUSH2 0x16C PUSH1 0x4 DUP1 CALLDATASIZE SUB DUP2 ADD SWAP1 PUSH2 0x167 SWAP2 SWAP1 PUSH2 0xF47 JUMP JUMPDEST PUSH2 0x5CA JUMP JUMPDEST PUSH1 0x40 MLOAD PUSH2 0x179 SWAP2 SWAP1 PUSH2 0xCAB JUMP JUMPDEST PUSH1 0x40 MLOAD DUP1 SWAP2 SUB SWAP1 RETURN JUMPDEST PUSH2 0x19C PUSH1 0x4 DUP1 CALLDATASIZE SUB DUP2 ADD SWAP1 PUSH2 0x197 SWAP2 SWAP1 PUSH2 0xFD3 JUMP JUMPDEST PUSH2 0x8B1 JUMP JUMPDEST PUSH1 0x40 MLOAD PUSH2 0x1AC SWAP5 SWAP4 SWAP3 SWAP2 SWAP1 PUSH2 0x1031 JUMP JUMPDEST PUSH1 0x40 MLOAD DUP1 SWAP2 SUB SWAP1 RETURN JUMPDEST PUSH2 0x1CF PUSH1 0x4 DUP1 CALLDATASIZE SUB DUP2 ADD SWAP1 PUSH2 0x1CA SWAP2 SWAP1 PUSH2 0x10CC JUMP JUMPDEST PUSH2 0x918 JUMP JUMPDEST PUSH1 0x40 MLOAD PUSH2 0x1DC SWAP2 SWAP1 PUSH2 0x1147 JUMP JUMPDEST PUSH1 0x40 MLOAD DUP1 SWAP2 SUB SWAP1 RETURN JUMPDEST PUSH2 0x1FF PUSH1 0x4 DUP1 CALLDATASIZE SUB DUP2 ADD SWAP1 PUSH2 0x1FA SWAP2 SWAP1 PUSH2 0x1162 JUMP JUMPDEST PUSH2 0x9FB JUMP JUMPDEST PUSH1 0x40 MLOAD PUSH2 0x20C SWAP2 SWAP1 PUSH2 0xCAB JUMP JUMPDEST PUSH1 0x40 MLOAD DUP1 SWAP2 SUB SWAP1 RETURN JUMPDEST PUSH2 0x22F PUSH1 0x4 DUP1 CALLDATASIZE SUB DUP2 ADD SWAP1 PUSH2 0x22A SWAP2 SWAP1 PUSH2 0xCC6 JUMP JUMPDEST PUSH2 0xA1F JUMP JUMPDEST PUSH1 0x40 MLOAD PUSH2 0x241 SWAP7 SWAP6 SWAP5 SWAP4 SWAP3 SWAP2 SWAP1 PUSH2 0x122E JUMP JUMPDEST PUSH1 0x40 MLOAD DUP1 SWAP2 SUB SWAP1 RETURN JUMPDEST PUSH2 0x252 PUSH2 0xB0A JUMP JUMPDEST PUSH1 0x40 MLOAD PUSH2 0x25F SWAP2 SWAP1 PUSH2 0x1296 JUMP JUMPDEST PUSH1 0x40 MLOAD DUP1 SWAP2 SUB SWAP1 RETURN JUMPDEST PUSH1 0x0 DUP1 DUP4 DUP2 MSTORE PUSH1 0x20 ADD SWAP1 DUP2 MSTORE PUSH1 0x20 ADD PUSH1 0x0 KECCAK256 PUSH1 0x3 ADD PUSH1 0x2 SWAP1 SLOAD SWAP1 PUSH2 0x100 EXP SWAP1 DIV PUSH1 0xFF AND PUSH2 0x2CA JUMPI PUSH1 0x40 MLOAD PUSH32 0x8C379A000000000000000000000000000000000000000000000000000000000 DUP2 MSTORE PUSH1 0x4 ADD PUSH2 0x2C1 SWAP1 PUSH2 0x12FD JUMP JUMPDEST PUSH1 0x40 MLOAD DUP1 SWAP2 SUB SWAP1 REVERT JUMPDEST PUSH1 0x0 DUP1 PUSH1 0x0 DUP5 DUP2 MSTORE PUSH1 0x20 ADD SWAP1 DUP2 MSTORE PUSH1 0x20 ADD PUSH1 0x0 KECCAK256 PUSH1 0x3 ADD PUSH1 0x1 SWAP1 SLOAD SWAP1 PUSH2 0x100 EXP SWAP1 DIV PUSH1 0xFF AND SWAP1 POP DUP2 PUSH1 0x0 DUP1 DUP6 DUP2 MSTORE PUSH1 0x20 ADD SWAP1 DUP2 MSTORE PUSH1 0x20 ADD PUSH1 0x0 KECCAK256 PUSH1 0x3 ADD PUSH1 0x1 PUSH2 0x100 EXP DUP2 SLOAD DUP2 PUSH1 0xFF MUL NOT AND SWAP1 DUP4 PUSH1 0x3 DUP2 GT ISZERO PUSH2 0x329 JUMPI PUSH2 0x328 PUSH2 0xD1F JUMP JUMPDEST JUMPDEST MUL OR SWAP1 SSTORE POP PUSH1 0x1 PUSH1 0x0 DUP5 DUP2 MSTORE PUSH1 0x20 ADD SWAP1 DUP2 MSTORE PUSH1 0x20 ADD PUSH1 0x0 KECCAK256 PUSH1 0x40 MLOAD DUP1 PUSH1 0x80 ADD PUSH1 0x40 MSTORE DUP1 DUP4 PUSH1 0x3 DUP2 GT ISZERO PUSH2 0x35F JUMPI PUSH2 0x35E PUSH2 0xD1F JUMP JUMPDEST JUMPDEST DUP2 MSTORE PUSH1 0x20 ADD DUP5 PUSH1 0x3 DUP2 GT ISZERO PUSH2 0x377 JUMPI PUSH2 0x376 PUSH2 0xD1F JUMP JUMPDEST JUMPDEST DUP2 MSTORE PUSH1 0x20 ADD NUMBER DUP2 MSTORE PUSH1 0x20 ADD TIMESTAMP DUP2 MSTORE POP SWAP1 DUP1 PUSH1 0x1 DUP2 SLOAD ADD DUP1 DUP3 SSTORE DUP1 SWAP2 POP POP PUSH1 0x1 SWAP1 SUB SWAP1 PUSH1 0x0 MSTORE PUSH1 0x20 PUSH1 0x0 KECCAK256 SWAP1 PUSH1 0x3 MUL ADD PUSH1 0x0 SWAP1 SWAP2 SWAP1 SWAP2 SWAP1 SWAP2 POP PUSH1 0x0 DUP3 ADD MLOAD DUP2 PUSH1 0x0 ADD PUSH1 0x0 PUSH2 0x100 EXP DUP2 SLOAD DUP2 PUSH1 0xFF MUL NOT AND SWAP1 DUP4 PUSH1 0x3 DUP2 GT ISZERO PUSH2 0x3DA JUMPI PUSH2 0x3D9 PUSH2 0xD1F JUMP JUMPDEST JUMPDEST MUL OR SWAP1 SSTORE POP PUSH1 0x20 DUP3 ADD MLOAD DUP2 PUSH1 0x0 ADD PUSH1 0x1 PUSH2 0x100 EXP DUP2 SLOAD DUP2 PUSH1 0xFF MUL NOT AND SWAP1 DUP4 PUSH1 0x3 DUP2 GT ISZERO PUSH2 0x40A JUMPI PUSH2 0x409 PUSH2 0xD1F JUMP JUMPDEST JUMPDEST MUL OR SWAP1 SSTORE POP PUSH1 0x40 DUP3 ADD MLOAD DUP2 PUSH1 0x1 ADD SSTORE PUSH1 0x60 DUP3 ADD MLOAD DUP2 PUSH1 0x2 ADD SSTORE POP POP DUP3 PUSH32 0x9EF7966CE15872A318BA71FFB271AB358C5847E8022F4121CD3687626B4F33DB DUP3 DUP5 NUMBER PUSH1 0x40 MLOAD PUSH2 0x459 SWAP4 SWAP3 SWAP2 SWAP1 PUSH2 0x131D JUMP JUMPDEST PUSH1 0x40 MLOAD DUP1 SWAP2 SUB SWAP1 LOG2 POP POP POP JUMP JUMPDEST PUSH1 0x60 PUSH1 0x2 DUP1 SLOAD DUP1 PUSH1 0x20 MUL PUSH1 0x20 ADD PUSH1 0x40 MLOAD SWAP1 DUP2 ADD PUSH1 0x40 MSTORE DUP1 SWAP3 SWAP2 SWAP1 DUP2 DUP2 MSTORE PUSH1 0x20 ADD DUP3 DUP1 SLOAD DUP1 ISZERO PUSH2 0x4B4 JUMPI PUSH1 0x20 MUL DUP3 ADD SWAP2 SWAP1 PUSH1 0x0 MSTORE PUSH1 0x20 PUSH1 0x0 KECCAK256 SWAP1 JUMPDEST DUP2 SLOAD DUP2 MSTORE PUSH1 0x20 ADD SWAP1 PUSH1 0x1 ADD SWAP1 DUP1 DUP4 GT PUSH2 0x4A0 JUMPI JUMPDEST POP POP POP POP POP SWAP1 POP SWAP1 JUMP JUMPDEST PUSH1 0x3 SLOAD DUP2 JUMP JUMPDEST PUSH1 0x60 PUSH1 0x1 PUSH1 0x0 DUP4 DUP2 MSTORE PUSH1 0x20 ADD SWAP1 DUP2 MSTORE PUSH1 0x20 ADD PUSH1 0x0 KECCAK256 DUP1 SLOAD DUP1 PUSH1 0x20 MUL PUSH1 0x20 ADD PUSH1 0x40 MLOAD SWAP1 DUP2 ADD PUSH1 0x40 MSTORE DUP1 SWAP3 SWAP2 SWAP1 DUP2 DUP2 MSTORE PUSH1 0x20 ADD PUSH1 0x0 SWAP1 JUMPDEST DUP3 DUP3 LT ISZERO PUSH2 0x5B5 JUMPI DUP4 DUP3 SWAP1 PUSH1 0x0 MSTORE PUSH1 0x20 PUSH1 0x0 KECCAK256 SWAP1 PUSH1 0x3 MUL ADD PUSH1 0x40 MLOAD DUP1 PUSH1 0x80 ADD PUSH1 0x40 MSTORE SWAP1 DUP2 PUSH1 0x0 DUP3 ADD PUSH1 0x0 SWAP1 SLOAD SWAP1 PUSH2 0x100 EXP SWAP1 DIV PUSH1 0xFF AND PUSH1 0x3 DUP2 GT ISZERO PUSH2 0x541 JUMPI PUSH2 0x540 PUSH2 0xD1F JUMP JUMPDEST JUMPDEST PUSH1 0x3 DUP2 GT ISZERO PUSH2 0x553 JUMPI PUSH2 0x552 PUSH2 0xD1F JUMP JUMPDEST JUMPDEST DUP2 MSTORE PUSH1 0x20 ADD PUSH1 0x0 DUP3 ADD PUSH1 0x1 SWAP1 SLOAD SWAP1 PUSH2 0x100 EXP SWAP1 DIV PUSH1 0xFF AND PUSH1 0x3 DUP2 GT ISZERO PUSH2 0x57C JUMPI PUSH2 0x57B PUSH2 0xD1F JUMP JUMPDEST JUMPDEST PUSH1 0x3 DUP2 GT ISZERO PUSH2 0x58E JUMPI PUSH2 0x58D PUSH2 0xD1F JUMP JUMPDEST JUMPDEST DUP2 MSTORE PUSH1 0x20 ADD PUSH1 0x1 DUP3 ADD SLOAD DUP2 MSTORE PUSH1 0x20 ADD PUSH1 0x2 DUP3 ADD SLOAD DUP2 MSTORE POP POP DUP2 MSTORE PUSH1 0x20 ADD SWAP1 PUSH1 0x1 ADD SWAP1 PUSH2 0x4F9 JUMP JUMPDEST POP POP POP POP SWAP1 POP SWAP2 SWAP1 POP JUMP JUMPDEST DUP1 PUSH1 0x3 DUP2 SWAP1 SSTORE POP POP JUMP JUMPDEST PUSH1 0x0 PUSH1 0x64 DUP3 PUSH1 0xFF AND GT ISZERO PUSH2 0x613 JUMPI PUSH1 0x40 MLOAD PUSH32 0x8C379A000000000000000000000000000000000000000000000000000000000 DUP2 MSTORE PUSH1 0x4 ADD PUSH2 0x60A SWAP1 PUSH2 0x13A0 JUMP JUMPDEST PUSH1 0x40 MLOAD DUP1 SWAP2 SUB SWAP1 REVERT JUMPDEST PUSH1 0x0 TIMESTAMP DUP6 DUP6 PREVRANDAO PUSH1 0x40 MLOAD PUSH1 0x20 ADD PUSH2 0x62C SWAP5 SWAP4 SWAP3 SWAP2 SWAP1 PUSH2 0x1420 JUMP JUMPDEST PUSH1 0x40 MLOAD PUSH1 0x20 DUP2 DUP4 SUB SUB DUP2 MSTORE SWAP1 PUSH1 0x40 MSTORE DUP1 MLOAD SWAP1 PUSH1 0x20 ADD KECCAK256 SWAP1 POP PUSH1 0x0 DUP1 DUP3 DUP2 MSTORE PUSH1 0x20 ADD SWAP1 DUP2 MSTORE PUSH1 0x20 ADD PUSH1 0x0 KECCAK256 PUSH1 0x3 ADD PUSH1 0x2 SWAP1 SLOAD SWAP1 PUSH2 0x100 EXP SWAP1 DIV PUSH1 0xFF AND ISZERO PUSH2 0x6A7 JUMPI PUSH1 0x40 MLOAD PUSH32 0x8C379A000000000000000000000000000000000000000000000000000000000 DUP2 MSTORE PUSH1 0x4 ADD PUSH2 0x69E SWAP1 PUSH2 0x14A7 JUMP JUMPDEST PUSH1 0x40 MLOAD DUP1 SWAP2 SUB SWAP1 REVERT JUMPDEST PUSH1 0x0 PUSH1 0x55 DUP5 PUSH1 0xFF AND LT ISZERO PUSH2 0x6BC JUMPI PUSH1 0x0 PUSH2 0x6BF JUMP JUMPDEST PUSH1 0x2 JUMPDEST SWAP1 POP PUSH1 0x40 MLOAD DUP1 PUSH1 0xC0 ADD PUSH1 0x40 MSTORE DUP1 DUP4 DUP2 MSTORE PUSH1 0x20 ADD TIMESTAMP DUP2 MSTORE PUSH1 0x20 ADD DUP8 DUP8 DUP1 DUP1 PUSH1 0x1F ADD PUSH1 0x20 DUP1 SWAP2 DIV MUL PUSH1 0x20 ADD PUSH1 0x40 MLOAD SWAP1 DUP2 ADD PUSH1 0x40 MSTORE DUP1 SWAP4 SWAP3 SWAP2 SWAP1 DUP2 DUP2 MSTORE PUSH1 0x20 ADD DUP4 DUP4 DUP1 DUP3 DUP5 CALLDATACOPY PUSH1 0x0 DUP2 DUP5 ADD MSTORE PUSH1 0x1F NOT PUSH1 0x1F DUP3 ADD AND SWAP1 POP DUP1 DUP4 ADD SWAP3 POP POP POP POP POP POP POP DUP2 MSTORE PUSH1 0x20 ADD DUP6 PUSH1 0xFF AND DUP2 MSTORE PUSH1 0x20 ADD DUP3 PUSH1 0x3 DUP2 GT ISZERO PUSH2 0x73E JUMPI PUSH2 0x73D PUSH2 0xD1F JUMP JUMPDEST JUMPDEST DUP2 MSTORE PUSH1 0x20 ADD PUSH1 0x1 ISZERO ISZERO DUP2 MSTORE POP PUSH1 0x0 DUP1 DUP5 DUP2 MSTORE PUSH1 0x20 ADD SWAP1 DUP2 MSTORE PUSH1 0x20 ADD PUSH1 0x0 KECCAK256 PUSH1 0x0 DUP3 ADD MLOAD DUP2 PUSH1 0x0 ADD SSTORE PUSH1 0x20 DUP3 ADD MLOAD DUP2 PUSH1 0x1 ADD SSTORE PUSH1 0x40 DUP3 ADD MLOAD DUP2 PUSH1 0x2 ADD SWAP1 DUP2 PUSH2 0x785 SWAP2 SWAP1 PUSH2 0x1702 JUMP JUMPDEST POP PUSH1 0x60 DUP3 ADD MLOAD DUP2 PUSH1 0x3 ADD PUSH1 0x0 PUSH2 0x100 EXP DUP2 SLOAD DUP2 PUSH1 0xFF MUL NOT AND SWAP1 DUP4 PUSH1 0xFF AND MUL OR SWAP1 SSTORE POP PUSH1 0x80 DUP3 ADD MLOAD DUP2 PUSH1 0x3 ADD PUSH1 0x1 PUSH2 0x100 EXP DUP2 SLOAD DUP2 PUSH1 0xFF MUL NOT AND SWAP1 DUP4 PUSH1 0x3 DUP2 GT ISZERO PUSH2 0x7D2 JUMPI PUSH2 0x7D1 PUSH2 0xD1F JUMP JUMPDEST JUMPDEST MUL OR SWAP1 SSTORE POP PUSH1 0xA0 DUP3 ADD MLOAD DUP2 PUSH1 0x3 ADD PUSH1 0x2 PUSH2 0x100 EXP DUP2 SLOAD DUP2 PUSH1 0xFF MUL NOT AND SWAP1 DUP4 ISZERO ISZERO MUL OR SWAP1 SSTORE POP SWAP1 POP POP PUSH1 0x2 DUP3 SWAP1 DUP1 PUSH1 0x1 DUP2 SLOAD ADD DUP1 DUP3 SSTORE DUP1 SWAP2 POP POP PUSH1 0x1 SWAP1 SUB SWAP1 PUSH1 0x0 MSTORE PUSH1 0x20 PUSH1 0x0 KECCAK256 ADD PUSH1 0x0 SWAP1 SWAP2 SWAP1 SWAP2 SWAP1 SWAP2 POP SSTORE DUP2 PUSH32 0xC1413A272FA0FDB1B689452B896FCA2FB94C160B6F9009640444E639719E2310 TIMESTAMP DUP7 DUP10 DUP10 PUSH1 0x40 MLOAD PUSH2 0x859 SWAP5 SWAP4 SWAP3 SWAP2 SWAP1 PUSH2 0x1801 JUMP JUMPDEST PUSH1 0x40 MLOAD DUP1 SWAP2 SUB SWAP1 LOG2 PUSH1 0x55 DUP5 PUSH1 0xFF AND LT PUSH2 0x8A5 JUMPI DUP2 PUSH32 0x23678B3FD467BD897DF163D2B35076CB55E5FEF82894FCC85C2B9279C7B3E898 DUP6 PUSH1 0x40 MLOAD PUSH2 0x89C SWAP2 SWAP1 PUSH2 0x1841 JUMP JUMPDEST PUSH1 0x40 MLOAD DUP1 SWAP2 SUB SWAP1 LOG2 JUMPDEST DUP2 SWAP3 POP POP POP SWAP4 SWAP3 POP POP POP JUMP JUMPDEST PUSH1 0x1 PUSH1 0x20 MSTORE DUP2 PUSH1 0x0 MSTORE PUSH1 0x40 PUSH1 0x0 KECCAK256 DUP2 DUP2 SLOAD DUP2 LT PUSH2 0x8CD JUMPI PUSH1 0x0 DUP1 REVERT JUMPDEST SWAP1 PUSH1 0x0 MSTORE PUSH1 0x20 PUSH1 0x0 KECCAK256 SWAP1 PUSH1 0x3 MUL ADD PUSH1 0x0 SWAP2 POP SWAP2 POP POP DUP1 PUSH1 0x0 ADD PUSH1 0x0 SWAP1 SLOAD SWAP1 PUSH2 0x100 EXP SWAP1 DIV PUSH1 0xFF AND SWAP1 DUP1 PUSH1 0x0 ADD PUSH1 0x1 SWAP1 SLOAD SWAP1 PUSH2 0x100 EXP SWAP1 DIV PUSH1 0xFF AND SWAP1 DUP1 PUSH1 0x1 ADD SLOAD SWAP1 DUP1 PUSH1 0x2 ADD SLOAD SWAP1 POP DUP5 JUMP JUMPDEST PUSH1 0x0 DUP1 DUP5 SWAP1 POP PUSH1 0x0 JUMPDEST DUP5 DUP5 SWAP1 POP DUP2 LT ISZERO PUSH2 0x9EB JUMPI DUP5 DUP5 DUP3 DUP2 DUP2 LT PUSH2 0x93F JUMPI PUSH2 0x93E PUSH2 0x185C JUMP JUMPDEST JUMPDEST SWAP1 POP PUSH1 0x20 MUL ADD CALLDATALOAD DUP3 LT PUSH2 0x993 JUMPI DUP5 DUP5 DUP3 DUP2 DUP2 LT PUSH2 0x95F JUMPI PUSH2 0x95E PUSH2 0x185C JUMP JUMPDEST JUMPDEST SWAP1 POP PUSH1 0x20 MUL ADD CALLDATALOAD DUP3 PUSH1 0x40 MLOAD PUSH1 0x20 ADD PUSH2 0x978 SWAP3 SWAP2 SWAP1 PUSH2 0x18AC JUMP JUMPDEST PUSH1 0x40 MLOAD PUSH1 0x20 DUP2 DUP4 SUB SUB DUP2 MSTORE SWAP1 PUSH1 0x40 MSTORE DUP1 MLOAD SWAP1 PUSH1 0x20 ADD KECCAK256 PUSH2 0x9D6 JUMP JUMPDEST DUP2 DUP6 DUP6 DUP4 DUP2 DUP2 LT PUSH2 0x9A7 JUMPI PUSH2 0x9A6 PUSH2 0x185C JUMP JUMPDEST JUMPDEST SWAP1 POP PUSH1 0x20 MUL ADD CALLDATALOAD PUSH1 0x40 MLOAD PUSH1 0x20 ADD PUSH2 0x9BF SWAP3 SWAP2 SWAP1 PUSH2 0x18AC JUMP JUMPDEST PUSH1 0x40 MLOAD PUSH1 0x20 DUP2 DUP4 SUB SUB DUP2 MSTORE SWAP1 PUSH1 0x40 MSTORE DUP1 MLOAD SWAP1 PUSH1 0x20 ADD KECCAK256 JUMPDEST SWAP2 POP DUP1 DUP1 PUSH2 0x9E3 SWAP1 PUSH2 0x1907 JUMP JUMPDEST SWAP2 POP POP PUSH2 0x921 JUMP JUMPDEST POP PUSH1 0x3 SLOAD DUP2 EQ SWAP2 POP POP SWAP4 SWAP3 POP POP POP JUMP JUMPDEST PUSH1 0x2 DUP2 DUP2 SLOAD DUP2 LT PUSH2 0xA0B JUMPI PUSH1 0x0 DUP1 REVERT JUMPDEST SWAP1 PUSH1 0x0 MSTORE PUSH1 0x20 PUSH1 0x0 KECCAK256 ADD PUSH1 0x0 SWAP2 POP SWAP1 POP SLOAD DUP2 JUMP JUMPDEST PUSH1 0x0 PUSH1 0x20 MSTORE DUP1 PUSH1 0x0 MSTORE PUSH1 0x40 PUSH1 0x0 KECCAK256 PUSH1 0x0 SWAP2 POP SWAP1 POP DUP1 PUSH1 0x0 ADD SLOAD SWAP1 DUP1 PUSH1 0x1 ADD SLOAD SWAP1 DUP1 PUSH1 0x2 ADD DUP1 SLOAD PUSH2 0xA4E SWAP1 PUSH2 0x1525 JUMP JUMPDEST DUP1 PUSH1 0x1F ADD PUSH1 0x20 DUP1 SWAP2 DIV MUL PUSH1 0x20 ADD PUSH1 0x40 MLOAD SWAP1 DUP2 ADD PUSH1 0x40 MSTORE DUP1 SWAP3 SWAP2 SWAP1 DUP2 DUP2 MSTORE PUSH1 0x20 ADD DUP3 DUP1 SLOAD PUSH2 0xA7A SWAP1 PUSH2 0x1525 JUMP JUMPDEST DUP1 ISZERO PUSH2 0xAC7 JUMPI DUP1 PUSH1 0x1F LT PUSH2 0xA9C JUMPI PUSH2 0x100 DUP1 DUP4 SLOAD DIV MUL DUP4 MSTORE SWAP2 PUSH1 0x20 ADD SWAP2 PUSH2 0xAC7 JUMP JUMPDEST DUP3 ADD SWAP2 SWAP1 PUSH1 0x0 MSTORE PUSH1 0x20 PUSH1 0x0 KECCAK256 SWAP1 JUMPDEST DUP2 SLOAD DUP2 MSTORE SWAP1 PUSH1 0x1 ADD SWAP1 PUSH1 0x20 ADD DUP1 DUP4 GT PUSH2 0xAAA JUMPI DUP3 SWAP1 SUB PUSH1 0x1F AND DUP3 ADD SWAP2 JUMPDEST POP POP POP POP POP SWAP1 DUP1 PUSH1 0x3 ADD PUSH1 0x0 SWAP1 SLOAD SWAP1 PUSH2 0x100 EXP SWAP1 DIV PUSH1 0xFF AND SWAP1 DUP1 PUSH1 0x3 ADD PUSH1 0x1 SWAP1 SLOAD SWAP1 PUSH2 0x100 EXP SWAP1 DIV PUSH1 0xFF AND SWAP1 DUP1 PUSH1 0x3 ADD PUSH1 0x2 SWAP1 SLOAD SWAP1 PUSH2 0x100 EXP SWAP1 DIV PUSH1 0xFF AND SWAP1 POP DUP7 JUMP JUMPDEST PUSH1 0x0 PUSH1 0x2 DUP1 SLOAD SWAP1 POP SWAP1 POP SWAP1 JUMP JUMPDEST PUSH1 0x0 DUP1 REVERT JUMPDEST PUSH1 0x0 DUP1 REVERT JUMPDEST PUSH1 0x0 DUP2 SWAP1 POP SWAP2 SWAP1 POP JUMP JUMPDEST PUSH2 0xB34 DUP2 PUSH2 0xB21 JUMP JUMPDEST DUP2 EQ PUSH2 0xB3F JUMPI PUSH1 0x0 DUP1 REVERT JUMPDEST POP JUMP JUMPDEST PUSH1 0x0 DUP2 CALLDATALOAD SWAP1 POP PUSH2 0xB51 DUP2 PUSH2 0xB2B JUMP JUMPDEST SWAP3 SWAP2 POP POP JUMP JUMPDEST PUSH1 0x4 DUP2 LT PUSH2 0xB64 JUMPI PUSH1 0x0 DUP1 REVERT JUMPDEST POP JUMP JUMPDEST PUSH1 0x0 DUP2 CALLDATALOAD SWAP1 POP PUSH2 0xB76 DUP2 PUSH2 0xB57 JUMP JUMPDEST SWAP3 SWAP2 POP POP JUMP JUMPDEST PUSH1 0x0 DUP1 PUSH1 0x40 DUP4 DUP6 SUB SLT ISZERO PUSH2 0xB93 JUMPI PUSH2 0xB92 PUSH2 0xB17 JUMP JUMPDEST JUMPDEST PUSH1 0x0 PUSH2 0xBA1 DUP6 DUP3 DUP7 ADD PUSH2 0xB42 JUMP JUMPDEST SWAP3 POP POP PUSH1 0x20 PUSH2 0xBB2 DUP6 DUP3 DUP7 ADD PUSH2 0xB67 JUMP JUMPDEST SWAP2 POP POP SWAP3 POP SWAP3 SWAP1 POP JUMP JUMPDEST PUSH1 0x0 DUP2 MLOAD SWAP1 POP SWAP2 SWAP1 POP JUMP JUMPDEST PUSH1 0x0 DUP3 DUP3 MSTORE PUSH1 0x20 DUP3 ADD SWAP1 POP SWAP3 SWAP2 POP POP JUMP JUMPDEST PUSH1 0x0 DUP2 SWAP1 POP PUSH1 0x20 DUP3 ADD SWAP1 POP SWAP2 SWAP1 POP JUMP JUMPDEST PUSH2 0xBF1 DUP2 PUSH2 0xB21 JUMP JUMPDEST DUP3 MSTORE POP POP JUMP JUMPDEST PUSH1 0x0 PUSH2 0xC03 DUP4 DUP4 PUSH2 0xBE8 JUMP JUMPDEST PUSH1 0x20 DUP4 ADD SWAP1 POP SWAP3 SWAP2 POP POP JUMP JUMPDEST PUSH1 0x0 PUSH1 0x20 DUP3 ADD SWAP1 POP SWAP2 SWAP1 POP JUMP JUMPDEST PUSH1 0x0 PUSH2 0xC27 DUP3 PUSH2 0xBBC JUMP JUMPDEST PUSH2 0xC31 DUP2 DUP6 PUSH2 0xBC7 JUMP JUMPDEST SWAP4 POP PUSH2 0xC3C DUP4 PUSH2 0xBD8 JUMP JUMPDEST DUP1 PUSH1 0x0 JUMPDEST DUP4 DUP2 LT ISZERO PUSH2 0xC6D JUMPI DUP2 MLOAD PUSH2 0xC54 DUP9 DUP3 PUSH2 0xBF7 JUMP JUMPDEST SWAP8 POP PUSH2 0xC5F DUP4 PUSH2 0xC0F JUMP JUMPDEST SWAP3 POP POP PUSH1 0x1 DUP2 ADD SWAP1 POP PUSH2 0xC40 JUMP JUMPDEST POP DUP6 SWAP4 POP POP POP POP SWAP3 SWAP2 POP POP JUMP JUMPDEST PUSH1 0x0 PUSH1 0x20 DUP3 ADD SWAP1 POP DUP2 DUP2 SUB PUSH1 0x0 DUP4 ADD MSTORE PUSH2 0xC94 DUP2 DUP5 PUSH2 0xC1C JUMP JUMPDEST SWAP1 POP SWAP3 SWAP2 POP POP JUMP JUMPDEST PUSH2 0xCA5 DUP2 PUSH2 0xB21 JUMP JUMPDEST DUP3 MSTORE POP POP JUMP JUMPDEST PUSH1 0x0 PUSH1 0x20 DUP3 ADD SWAP1 POP PUSH2 0xCC0 PUSH1 0x0 DUP4 ADD DUP5 PUSH2 0xC9C JUMP JUMPDEST SWAP3 SWAP2 POP POP JUMP JUMPDEST PUSH1 0x0 PUSH1 0x20 DUP3 DUP5 SUB SLT ISZERO PUSH2 0xCDC JUMPI PUSH2 0xCDB PUSH2 0xB17 JUMP JUMPDEST JUMPDEST PUSH1 0x0 PUSH2 0xCEA DUP5 DUP3 DUP6 ADD PUSH2 0xB42 JUMP JUMPDEST SWAP2 POP POP SWAP3 SWAP2 POP POP JUMP JUMPDEST PUSH1 0x0 DUP2 MLOAD SWAP1 POP SWAP2 SWAP1 POP JUMP JUMPDEST PUSH1 0x0 DUP3 DUP3 MSTORE PUSH1 0x20 DUP3 ADD SWAP1 POP SWAP3 SWAP2 POP POP JUMP JUMPDEST PUSH1 0x0 DUP2 SWAP1 POP PUSH1 0x20 DUP3 ADD SWAP1 POP SWAP2 SWAP1 POP JUMP JUMPDEST PUSH32 0x4E487B7100000000000000000000000000000000000000000000000000000000 PUSH1 0x0 MSTORE PUSH1 0x21 PUSH1 0x4 MSTORE PUSH1 0x24 PUSH1 0x0 REVERT JUMPDEST PUSH1 0x4 DUP2 LT PUSH2 0xD5F JUMPI PUSH2 0xD5E PUSH2 0xD1F JUMP JUMPDEST JUMPDEST POP JUMP JUMPDEST PUSH1 0x0 DUP2 SWAP1 POP PUSH2 0xD70 DUP3 PUSH2 0xD4E JUMP JUMPDEST SWAP2 SWAP1 POP JUMP JUMPDEST PUSH1 0x0 PUSH2 0xD80 DUP3 PUSH2 0xD62 JUMP JUMPDEST SWAP1 POP SWAP2 SWAP1 POP JUMP JUMPDEST PUSH2 0xD90 DUP2 PUSH2 0xD75 JUMP JUMPDEST DUP3 MSTORE POP POP JUMP JUMPDEST PUSH1 0x0 DUP2 SWAP1 POP SWAP2 SWAP1 POP JUMP JUMPDEST PUSH2 0xDA9 DUP2 PUSH2 0xD96 JUMP JUMPDEST DUP3 MSTORE POP POP JUMP JUMPDEST PUSH1 0x80 DUP3 ADD PUSH1 0x0 DUP3 ADD MLOAD PUSH2 0xDC5 PUSH1 0x0 DUP6 ADD DUP3 PUSH2 0xD87 JUMP JUMPDEST POP PUSH1 0x20 DUP3 ADD MLOAD PUSH2 0xDD8 PUSH1 0x20 DUP6 ADD DUP3 PUSH2 0xD87 JUMP JUMPDEST POP PUSH1 0x40 DUP3 ADD MLOAD PUSH2 0xDEB PUSH1 0x40 DUP6 ADD DUP3 PUSH2 0xDA0 JUMP JUMPDEST POP PUSH1 0x60 DUP3 ADD MLOAD PUSH2 0xDFE PUSH1 0x60 DUP6 ADD DUP3 PUSH2 0xDA0 JUMP JUMPDEST POP POP POP POP JUMP JUMPDEST PUSH1 0x0 PUSH2 0xE10 DUP4 DUP4 PUSH2 0xDAF JUMP JUMPDEST PUSH1 0x80 DUP4 ADD SWAP1 POP SWAP3 SWAP2 POP POP JUMP JUMPDEST PUSH1 0x0 PUSH1 0x20 DUP3 ADD SWAP1 POP SWAP2 SWAP1 POP JUMP JUMPDEST PUSH1 0x0 PUSH2 0xE34 DUP3 PUSH2 0xCF3 JUMP JUMPDEST PUSH2 0xE3E DUP2 DUP6 PUSH2 0xCFE JUMP JUMPDEST SWAP4 POP PUSH2 0xE49 DUP4 PUSH2 0xD0F JUMP JUMPDEST DUP1 PUSH1 0x0 JUMPDEST DUP4 DUP2 LT ISZERO PUSH2 0xE7A JUMPI DUP2 MLOAD PUSH2 0xE61 DUP9 DUP3 PUSH2 0xE04 JUMP JUMPDEST SWAP8 POP PUSH2 0xE6C DUP4 PUSH2 0xE1C JUMP JUMPDEST SWAP3 POP POP PUSH1 0x1 DUP2 ADD SWAP1 POP PUSH2 0xE4D JUMP JUMPDEST POP DUP6 SWAP4 POP POP POP POP SWAP3 SWAP2 POP POP JUMP JUMPDEST PUSH1 0x0 PUSH1 0x20 DUP3 ADD SWAP1 POP DUP2 DUP2 SUB PUSH1 0x0 DUP4 ADD MSTORE PUSH2 0xEA1 DUP2 DUP5 PUSH2 0xE29 JUMP JUMPDEST SWAP1 POP SWAP3 SWAP2 POP POP JUMP JUMPDEST PUSH1 0x0 DUP1 REVERT JUMPDEST PUSH1 0x0 DUP1 REVERT JUMPDEST PUSH1 0x0 DUP1 REVERT JUMPDEST PUSH1 0x0 DUP1 DUP4 PUSH1 0x1F DUP5 ADD SLT PUSH2 0xECE JUMPI PUSH2 0xECD PUSH2 0xEA9 JUMP JUMPDEST JUMPDEST DUP3 CALLDATALOAD SWAP1 POP PUSH8 0xFFFFFFFFFFFFFFFF DUP2 GT ISZERO PUSH2 0xEEB JUMPI PUSH2 0xEEA PUSH2 0xEAE JUMP JUMPDEST JUMPDEST PUSH1 0x20 DUP4 ADD SWAP2 POP DUP4 PUSH1 0x1 DUP3 MUL DUP4 ADD GT ISZERO PUSH2 0xF07 JUMPI PUSH2 0xF06 PUSH2 0xEB3 JUMP JUMPDEST JUMPDEST SWAP3 POP SWAP3 SWAP1 POP JUMP JUMPDEST PUSH1 0x0 PUSH1 0xFF DUP3 AND SWAP1 POP SWAP2 SWAP1 POP JUMP JUMPDEST PUSH2 0xF24 DUP2 PUSH2 0xF0E JUMP JUMPDEST DUP2 EQ PUSH2 0xF2F JUMPI PUSH1 0x0 DUP1 REVERT JUMPDEST POP JUMP JUMPDEST PUSH1 0x0 DUP2 CALLDATALOAD SWAP1 POP PUSH2 0xF41 DUP2 PUSH2 0xF1B JUMP JUMPDEST SWAP3 SWAP2 POP POP JUMP JUMPDEST PUSH1 0x0 DUP1 PUSH1 0x0 PUSH1 0x40 DUP5 DUP7 SUB SLT ISZERO PUSH2 0xF60 JUMPI PUSH2 0xF5F PUSH2 0xB17 JUMP JUMPDEST JUMPDEST PUSH1 0x0 DUP5 ADD CALLDATALOAD PUSH8 0xFFFFFFFFFFFFFFFF DUP2 GT ISZERO PUSH2 0xF7E JUMPI PUSH2 0xF7D PUSH2 0xB1C JUMP JUMPDEST JUMPDEST PUSH2 0xF8A DUP7 DUP3 DUP8 ADD PUSH2 0xEB8 JUMP JUMPDEST SWAP4 POP SWAP4 POP POP PUSH1 0x20 PUSH2 0xF9D DUP7 DUP3 DUP8 ADD PUSH2 0xF32 JUMP JUMPDEST SWAP2 POP POP SWAP3 POP SWAP3 POP SWAP3 JUMP JUMPDEST PUSH2 0xFB0 DUP2 PUSH2 0xD96 JUMP JUMPDEST DUP2 EQ PUSH2 0xFBB JUMPI PUSH1 0x0 DUP1 REVERT JUMPDEST POP JUMP JUMPDEST PUSH1 0x0 DUP2 CALLDATALOAD SWAP1 POP PUSH2 0xFCD DUP2 PUSH2 0xFA7 JUMP JUMPDEST SWAP3 SWAP2 POP POP JUMP JUMPDEST PUSH1 0x0 DUP1 PUSH1 0x40 DUP4 DUP6 SUB SLT ISZERO PUSH2 0xFEA JUMPI PUSH2 0xFE9 PUSH2 0xB17 JUMP JUMPDEST JUMPDEST PUSH1 0x0 PUSH2 0xFF8 DUP6 DUP3 DUP7 ADD PUSH2 0xB42 JUMP JUMPDEST SWAP3 POP POP PUSH1 0x20 PUSH2 0x1009 DUP6 DUP3 DUP7 ADD PUSH2 0xFBE JUMP JUMPDEST SWAP2 POP POP SWAP3 POP SWAP3 SWAP1 POP JUMP JUMPDEST PUSH2 0x101C DUP2 PUSH2 0xD75 JUMP JUMPDEST DUP3 MSTORE POP POP JUMP JUMPDEST PUSH2 0x102B DUP2 PUSH2 0xD96 JUMP JUMPDEST DUP3 MSTORE POP POP JUMP JUMPDEST PUSH1 0x0 PUSH1 0x80 DUP3 ADD SWAP1 POP PUSH2 0x1046 PUSH1 0x0 DUP4 ADD DUP8 PUSH2 0x1013 JUMP JUMPDEST PUSH2 0x1053 PUSH1 0x20 DUP4 ADD DUP7 PUSH2 0x1013 JUMP JUMPDEST PUSH2 0x1060 PUSH1 0x40 DUP4 ADD DUP6 PUSH2 0x1022 JUMP JUMPDEST PUSH2 0x106D PUSH1 0x60 DUP4 ADD DUP5 PUSH2 0x1022 JUMP JUMPDEST SWAP6 SWAP5 POP POP POP POP POP JUMP JUMPDEST PUSH1 0x0 DUP1 DUP4 PUSH1 0x1F DUP5 ADD SLT PUSH2 0x108C JUMPI PUSH2 0x108B PUSH2 0xEA9 JUMP JUMPDEST JUMPDEST DUP3 CALLDATALOAD SWAP1 POP PUSH8 0xFFFFFFFFFFFFFFFF DUP2 GT ISZERO PUSH2 0x10A9 JUMPI PUSH2 0x10A8 PUSH2 0xEAE JUMP JUMPDEST JUMPDEST PUSH1 0x20 DUP4 ADD SWAP2 POP DUP4 PUSH1 0x20 DUP3 MUL DUP4 ADD GT ISZERO PUSH2 0x10C5 JUMPI PUSH2 0x10C4 PUSH2 0xEB3 JUMP JUMPDEST JUMPDEST SWAP3 POP SWAP3 SWAP1 POP JUMP JUMPDEST PUSH1 0x0 DUP1 PUSH1 0x0 PUSH1 0x40 DUP5 DUP7 SUB SLT ISZERO PUSH2 0x10E5 JUMPI PUSH2 0x10E4 PUSH2 0xB17 JUMP JUMPDEST JUMPDEST PUSH1 0x0 PUSH2 0x10F3 DUP7 DUP3 DUP8 ADD PUSH2 0xB42 JUMP JUMPDEST SWAP4 POP POP PUSH1 0x20 DUP5 ADD CALLDATALOAD PUSH8 0xFFFFFFFFFFFFFFFF DUP2 GT ISZERO PUSH2 0x1114 JUMPI PUSH2 0x1113 PUSH2 0xB1C JUMP JUMPDEST JUMPDEST PUSH2 0x1120 DUP7 DUP3 DUP8 ADD PUSH2 0x1076 JUMP JUMPDEST SWAP3 POP SWAP3 POP POP SWAP3 POP SWAP3 POP SWAP3 JUMP JUMPDEST PUSH1 0x0 DUP2 ISZERO ISZERO SWAP1 POP SWAP2 SWAP1 POP JUMP JUMPDEST PUSH2 0x1141 DUP2 PUSH2 0x112C JUMP JUMPDEST DUP3 MSTORE POP POP JUMP JUMPDEST PUSH1 0x0 PUSH1 0x20 DUP3 ADD SWAP1 POP PUSH2 0x115C PUSH1 0x0 DUP4 ADD DUP5 PUSH2 0x1138 JUMP JUMPDEST SWAP3 SWAP2 POP POP JUMP JUMPDEST PUSH1 0x0 PUSH1 0x20 DUP3 DUP5 SUB SLT ISZERO PUSH2 0x1178 JUMPI PUSH2 0x1177 PUSH2 0xB17 JUMP JUMPDEST JUMPDEST PUSH1 0x0 PUSH2 0x1186 DUP5 DUP3 DUP6 ADD PUSH2 0xFBE JUMP JUMPDEST SWAP2 POP POP SWAP3 SWAP2 POP POP JUMP JUMPDEST PUSH1 0x0 DUP2 MLOAD SWAP1 POP SWAP2 SWAP1 POP JUMP JUMPDEST PUSH1 0x0 DUP3 DUP3 MSTORE PUSH1 0x20 DUP3 ADD SWAP1 POP SWAP3 SWAP2 POP POP JUMP JUMPDEST PUSH1 0x0 JUMPDEST DUP4 DUP2 LT ISZERO PUSH2 0x11C9 JUMPI DUP1 DUP3 ADD MLOAD DUP2 DUP5 ADD MSTORE PUSH1 0x20 DUP2 ADD SWAP1 POP PUSH2 0x11AE JUMP JUMPDEST PUSH1 0x0 DUP5 DUP5 ADD MSTORE POP POP POP POP JUMP JUMPDEST PUSH1 0x0 PUSH1 0x1F NOT PUSH1 0x1F DUP4 ADD AND SWAP1 POP SWAP2 SWAP1 POP JUMP JUMPDEST PUSH1 0x0 PUSH2 0x11F1 DUP3 PUSH2 0x118F JUMP JUMPDEST PUSH2 0x11FB DUP2 DUP6 PUSH2 0x119A JUMP JUMPDEST SWAP4 POP PUSH2 0x120B DUP2 DUP6 PUSH1 0x20 DUP7 ADD PUSH2 0x11AB JUMP JUMPDEST PUSH2 0x1214 DUP2 PUSH2 0x11D5 JUMP JUMPDEST DUP5 ADD SWAP2 POP POP SWAP3 SWAP2 POP POP JUMP JUMPDEST PUSH2 0x1228 DUP2 PUSH2 0xF0E JUMP JUMPDEST DUP3 MSTORE POP POP JUMP JUMPDEST PUSH1 0x0 PUSH1 0xC0 DUP3 ADD SWAP1 POP PUSH2 0x1243 PUSH1 0x0 DUP4 ADD DUP10 PUSH2 0xC9C JUMP JUMPDEST PUSH2 0x1250 PUSH1 0x20 DUP4 ADD DUP9 PUSH2 0x1022 JUMP JUMPDEST DUP2 DUP2 SUB PUSH1 0x40 DUP4 ADD MSTORE PUSH2 0x1262 DUP2 DUP8 PUSH2 0x11E6 JUMP JUMPDEST SWAP1 POP PUSH2 0x1271 PUSH1 0x60 DUP4 ADD DUP7 PUSH2 0x121F JUMP JUMPDEST PUSH2 0x127E PUSH1 0x80 DUP4 ADD DUP6 PUSH2 0x1013 JUMP JUMPDEST PUSH2 0x128B PUSH1 0xA0 DUP4 ADD DUP5 PUSH2 0x1138 JUMP JUMPDEST SWAP8 SWAP7 POP POP POP POP POP POP POP JUMP JUMPDEST PUSH1 0x0 PUSH1 0x20 DUP3 ADD SWAP1 POP PUSH2 0x12AB PUSH1 0x0 DUP4 ADD DUP5 PUSH2 0x1022 JUMP JUMPDEST SWAP3 SWAP2 POP POP JUMP JUMPDEST PUSH32 0x5265706F7274206E6F7420666F756E6400000000000000000000000000000000 PUSH1 0x0 DUP3 ADD MSTORE POP JUMP JUMPDEST PUSH1 0x0 PUSH2 0x12E7 PUSH1 0x10 DUP4 PUSH2 0x119A JUMP JUMPDEST SWAP2 POP PUSH2 0x12F2 DUP3 PUSH2 0x12B1 JUMP JUMPDEST PUSH1 0x20 DUP3 ADD SWAP1 POP SWAP2 SWAP1 POP JUMP JUMPDEST PUSH1 0x0 PUSH1 0x20 DUP3 ADD SWAP1 POP DUP2 DUP2 SUB PUSH1 0x0 DUP4 ADD MSTORE PUSH2 0x1316 DUP2 PUSH2 0x12DA JUMP JUMPDEST SWAP1 POP SWAP2 SWAP1 POP JUMP JUMPDEST PUSH1 0x0 PUSH1 0x60 DUP3 ADD SWAP1 POP PUSH2 0x1332 PUSH1 0x0 DUP4 ADD DUP7 PUSH2 0x1013 JUMP JUMPDEST PUSH2 0x133F PUSH1 0x20 DUP4 ADD DUP6 PUSH2 0x1013 JUMP JUMPDEST PUSH2 0x134C PUSH1 0x40 DUP4 ADD DUP5 PUSH2 0x1022 JUMP JUMPDEST SWAP5 SWAP4 POP POP POP POP JUMP JUMPDEST PUSH32 0x53636F7265206F7574206F662072616E67650000000000000000000000000000 PUSH1 0x0 DUP3 ADD MSTORE POP JUMP JUMPDEST PUSH1 0x0 PUSH2 0x138A PUSH1 0x12 DUP4 PUSH2 0x119A JUMP JUMPDEST SWAP2 POP PUSH2 0x1395 DUP3 PUSH2 0x1354 JUMP JUMPDEST PUSH1 0x20 DUP3 ADD SWAP1 POP SWAP2 SWAP1 POP JUMP JUMPDEST PUSH1 0x0 PUSH1 0x20 DUP3 ADD SWAP1 POP DUP2 DUP2 SUB PUSH1 0x0 DUP4 ADD MSTORE PUSH2 0x13B9 DUP2 PUSH2 0x137D JUMP JUMPDEST SWAP1 POP SWAP2 SWAP1 POP JUMP JUMPDEST PUSH1 0x0 DUP2 SWAP1 POP SWAP2 SWAP1 POP JUMP JUMPDEST PUSH2 0x13DB PUSH2 0x13D6 DUP3 PUSH2 0xD96 JUMP JUMPDEST PUSH2 0x13C0 JUMP JUMPDEST DUP3 MSTORE POP POP JUMP JUMPDEST PUSH1 0x0 DUP2 SWAP1 POP SWAP3 SWAP2 POP POP JUMP JUMPDEST DUP3 DUP2 DUP4 CALLDATACOPY PUSH1 0x0 DUP4 DUP4 ADD MSTORE POP POP POP JUMP JUMPDEST PUSH1 0x0 PUSH2 0x1407 DUP4 DUP6 PUSH2 0x13E1 JUMP JUMPDEST SWAP4 POP PUSH2 0x1414 DUP4 DUP6 DUP5 PUSH2 0x13EC JUMP JUMPDEST DUP3 DUP5 ADD SWAP1 POP SWAP4 SWAP3 POP POP POP JUMP JUMPDEST PUSH1 0x0 PUSH2 0x142C DUP3 DUP8 PUSH2 0x13CA JUMP JUMPDEST PUSH1 0x20 DUP3 ADD SWAP2 POP PUSH2 0x143D DUP3 DUP6 DUP8 PUSH2 0x13FB JUMP JUMPDEST SWAP2 POP PUSH2 0x1449 DUP3 DUP5 PUSH2 0x13CA JUMP JUMPDEST PUSH1 0x20 DUP3 ADD SWAP2 POP DUP2 SWAP1 POP SWAP6 SWAP5 POP POP POP POP POP JUMP JUMPDEST PUSH32 0x4475706C6963617465207265706F727400000000000000000000000000000000 PUSH1 0x0 DUP3 ADD MSTORE POP JUMP JUMPDEST PUSH1 0x0 PUSH2 0x1491 PUSH1 0x10 DUP4 PUSH2 0x119A JUMP JUMPDEST SWAP2 POP PUSH2 0x149C DUP3 PUSH2 0x145B JUMP JUMPDEST PUSH1 0x20 DUP3 ADD SWAP1 POP SWAP2 SWAP1 POP JUMP JUMPDEST PUSH1 0x0 PUSH1 0x20 DUP3 ADD SWAP1 POP DUP2 DUP2 SUB PUSH1 0x0 DUP4 ADD MSTORE PUSH2 0x14C0 DUP2 PUSH2 0x1484 JUMP JUMPDEST SWAP1 POP SWAP2 SWAP1 POP JUMP JUMPDEST PUSH32 0x4E487B7100000000000000000000000000000000000000000000000000000000 PUSH1 0x0 MSTORE PUSH1 0x41 PUSH1 0x4 MSTORE PUSH1 0x24 PUSH1 0x0 REVERT JUMPDEST PUSH32 0x4E487B7100000000000000000000000000000000000000000000000000000000 PUSH1 0x0 MSTORE PUSH1 0x22 PUSH1 0x4 MSTORE PUSH1 0x24 PUSH1 0x0 REVERT JUMPDEST PUSH1 0x0 PUSH1 0x2 DUP3 DIV SWAP1 POP PUSH1 0x1 DUP3 AND DUP1 PUSH2 0x153D JUMPI PUSH1 0x7F DUP3 AND SWAP2 POP JUMPDEST PUSH1 0x20 DUP3 LT DUP2 SUB PUSH2 0x1550 JUMPI PUSH2 0x154F PUSH2 0x14F6 JUMP JUMPDEST JUMPDEST POP SWAP2 SWAP1 POP JUMP JUMPDEST PUSH1 0x0 DUP2 SWAP1 POP DUP2 PUSH1 0x0 MSTORE PUSH1 0x20 PUSH1 0x0 KECCAK256 SWAP1 POP SWAP2 SWAP1 POP JUMP JUMPDEST PUSH1 0x0 PUSH1 0x20 PUSH1 0x1F DUP4 ADD DIV SWAP1 POP SWAP2 SWAP1 POP JUMP JUMPDEST PUSH1 0x0 DUP3 DUP3 SHL SWAP1 POP SWAP3 SWAP2 POP POP JUMP JUMPDEST PUSH1 0x0 PUSH1 0x8 DUP4 MUL PUSH2 0x15B8 PUSH32 0xFFFFFFFFFFFFFFFFFFFFFFFFFFFFFFFFFFFFFFFFFFFFFFFFFFFFFFFFFFFFFFFF DUP3 PUSH2 0x157B JUMP JUMPDEST PUSH2 0x15C2 DUP7 DUP4 PUSH2 0x157B JUMP JUMPDEST SWAP6 POP DUP1 NOT DUP5 AND SWAP4 POP DUP1 DUP7 AND DUP5 OR SWAP3 POP POP POP SWAP4 SWAP3 POP POP POP JUMP JUMPDEST PUSH1 0x0 DUP2 SWAP1 POP SWAP2 SWAP1 POP JUMP JUMPDEST PUSH1 0x0 PUSH2 0x15FF PUSH2 0x15FA PUSH2 0x15F5 DUP5 PUSH2 0xD96 JUMP JUMPDEST PUSH2 0x15DA JUMP JUMPDEST PUSH2 0xD96 JUMP JUMPDEST SWAP1 POP SWAP2 SWAP1 POP JUMP JUMPDEST PUSH1 0x0 DUP2 SWAP1 POP SWAP2 SWAP1 POP JUMP JUMPDEST PUSH2 0x1619 DUP4 PUSH2 0x15E4 JUMP JUMPDEST PUSH2 0x162D PUSH2 0x1625 DUP3 PUSH2 0x1606 JUMP JUMPDEST DUP5 DUP5 SLOAD PUSH2 0x1588 JUMP JUMPDEST DUP3 SSTORE POP POP POP POP JUMP JUMPDEST PUSH1 0x0 SWAP1 JUMP JUMPDEST PUSH2 0x1642 PUSH2 0x1635 JUMP JUMPDEST PUSH2 0x164D DUP2 DUP5 DUP5 PUSH2 0x1610 JUMP JUMPDEST POP POP POP JUMP JUMPDEST JUMPDEST DUP2 DUP2 LT ISZERO PUSH2 0x1671 JUMPI PUSH2 0x1666 PUSH1 0x0 DUP3 PUSH2 0x163A JUMP JUMPDEST PUSH1 0x1 DUP2 ADD SWAP1 POP PUSH2 0x1653 JUMP JUMPDEST POP POP JUMP JUMPDEST PUSH1 0x1F DUP3 GT ISZERO PUSH2 0x16B6 JUMPI PUSH2 0x1687 DUP2 PUSH2 0x1556 JUMP JUMPDEST PUSH2 0x1690 DUP5 PUSH2 0x156B JUMP JUMPDEST DUP2 ADD PUSH1 0x20 DUP6 LT ISZERO PUSH2 0x169F JUMPI DUP2 SWAP1 POP JUMPDEST PUSH2 0x16B3 PUSH2 0x16AB DUP6 PUSH2 0x156B JUMP JUMPDEST DUP4 ADD DUP3 PUSH2 0x1652 JUMP JUMPDEST POP POP JUMPDEST POP POP POP JUMP JUMPDEST PUSH1 0x0 DUP3 DUP3 SHR SWAP1 POP SWAP3 SWAP2 POP POP JUMP JUMPDEST PUSH1 0x0 PUSH2 0x16D9 PUSH1 0x0 NOT DUP5 PUSH1 0x8 MUL PUSH2 0x16BB JUMP JUMPDEST NOT DUP1 DUP4 AND SWAP2 POP POP SWAP3 SWAP2 POP POP JUMP JUMPDEST PUSH1 0x0 PUSH2 0x16F2 DUP4 DUP4 PUSH2 0x16C8 JUMP JUMPDEST SWAP2 POP DUP3 PUSH1 0x2 MUL DUP3 OR SWAP1 POP SWAP3 SWAP2 POP POP JUMP JUMPDEST PUSH2 0x170B DUP3 PUSH2 0x118F JUMP JUMPDEST PUSH8 0xFFFFFFFFFFFFFFFF DUP2 GT ISZERO PUSH2 0x1724 JUMPI PUSH2 0x1723 PUSH2 0x14C7 JUMP JUMPDEST JUMPDEST PUSH2 0x172E DUP3 SLOAD PUSH2 0x1525 JUMP JUMPDEST PUSH2 0x1739 DUP3 DUP3 DUP6 PUSH2 0x1675 JUMP JUMPDEST PUSH1 0x0 PUSH1 0x20 SWAP1 POP PUSH1 0x1F DUP4 GT PUSH1 0x1 DUP2 EQ PUSH2 0x176C JUMPI PUSH1 0x0 DUP5 ISZERO PUSH2 0x175A JUMPI DUP3 DUP8 ADD MLOAD SWAP1 POP JUMPDEST PUSH2 0x1764 DUP6 DUP3 PUSH2 0x16E6 JUMP JUMPDEST DUP7 SSTORE POP PUSH2 0x17CC JUMP JUMPDEST PUSH1 0x1F NOT DUP5 AND PUSH2 0x177A DUP7 PUSH2 0x1556 JUMP JUMPDEST PUSH1 0x0 JUMPDEST DUP3 DUP2 LT ISZERO PUSH2 0x17A2 JUMPI DUP5 DUP10 ADD MLOAD DUP3 SSTORE PUSH1 0x1 DUP3 ADD SWAP2 POP PUSH1 0x20 DUP6 ADD SWAP5 POP PUSH1 0x20 DUP2 ADD SWAP1 POP PUSH2 0x177D JUMP JUMPDEST DUP7 DUP4 LT ISZERO PUSH2 0x17BF JUMPI DUP5 DUP10 ADD MLOAD PUSH2 0x17BB PUSH1 0x1F DUP10 AND DUP3 PUSH2 0x16C8 JUMP JUMPDEST DUP4 SSTORE POP JUMPDEST PUSH1 0x1 PUSH1 0x2 DUP9 MUL ADD DUP9 SSTORE POP POP POP JUMPDEST POP POP POP POP POP POP JUMP JUMPDEST PUSH1 0x0 PUSH2 0x17E0 DUP4 DUP6 PUSH2 0x119A JUMP JUMPDEST SWAP4 POP PUSH2 0x17ED DUP4 DUP6 DUP5 PUSH2 0x13EC JUMP JUMPDEST PUSH2 0x17F6 DUP4 PUSH2 0x11D5 JUMP JUMPDEST DUP5 ADD SWAP1 POP SWAP4 SWAP3 POP POP POP JUMP JUMPDEST PUSH1 0x0 PUSH1 0x60 DUP3 ADD SWAP1 POP PUSH2 0x1816 PUSH1 0x0 DUP4 ADD DUP8 PUSH2 0x1022 JUMP JUMPDEST PUSH2 0x1823 PUSH1 0x20 DUP4 ADD DUP7 PUSH2 0x121F JUMP JUMPDEST DUP2 DUP2 SUB PUSH1 0x40 DUP4 ADD MSTORE PUSH2 0x1836 DUP2 DUP5 DUP7 PUSH2 0x17D4 JUMP JUMPDEST SWAP1 POP SWAP6 SWAP5 POP POP POP POP POP JUMP JUMPDEST PUSH1 0x0 PUSH1 0x20 DUP3 ADD SWAP1 POP PUSH2 0x1856 PUSH1 0x0 DUP4 ADD DUP5 PUSH2 0x121F JUMP JUMPDEST SWAP3 SWAP2 POP POP JUMP JUMPDEST PUSH32 0x4E487B7100000000000000000000000000000000000000000000000000000000 PUSH1 0x0 MSTORE PUSH1 0x32 PUSH1 0x4 MSTORE PUSH1 0x24 PUSH1 0x0 REVERT JUMPDEST PUSH1 0x0 DUP2 SWAP1 POP SWAP2 SWAP1 POP JUMP JUMPDEST PUSH2 0x18A6 PUSH2 0x18A1 DUP3 PUSH2 0xB21 JUMP JUMPDEST PUSH2 0x188B JUMP JUMPDEST DUP3 MSTORE POP POP JUMP JUMPDEST PUSH1 0x0 PUSH2 0x18B8 DUP3 DUP6 PUSH2 0x1895 JUMP JUMPDEST PUSH1 0x20 DUP3 ADD SWAP2 POP PUSH2 0x18C8 DUP3 DUP5 PUSH2 0x1895 JUMP JUMPDEST PUSH1 0x20 DUP3 ADD SWAP2 POP DUP2 SWAP1 POP SWAP4 SWAP3 POP POP POP JUMP JUMPDEST PUSH32 0x4E487B7100000000000000000000000000000000000000000000000000000000 PUSH1 0x0 MSTORE PUSH1 0x11 PUSH1 0x4 MSTORE PUSH1 0x24 PUSH1 0x0 REVERT JUMPDEST PUSH1 0x0 PUSH2 0x1912 DUP3 PUSH2 0xD96 JUMP JUMPDEST SWAP2 POP PUSH32 0xFFFFFFFFFFFFFFFFFFFFFFFFFFFFFFFFFFFFFFFFFFFFFFFFFFFFFFFFFFFFFFFF DUP3 SUB PUSH2 0x1944 JUMPI PUSH2 0x1943 PUSH2 0x18D8 JUMP JUMPDEST JUMPDEST PUSH1 0x1 DUP3 ADD SWAP1 POP SWAP2 SWAP1 POP JUMP INVALID LOG2 PUSH5 0x6970667358 0x22 SLT KECCAK256 PUSH30 0x862F8CD93D952F3D9230175D490D655990F1AB49F13F5D9F04DF6A28CA30 JUMPI PUSH5 0x736F6C6343 STOP ADDMOD SGT STOP CALLER "},"methodIdentifiers":{"auditLog(bytes32,uint256)":"76b81124","blocklistMerkleRoot()":"2c47ad37","fileReport(string,uint8)":"6ef520b4","getAllReportIds()":"131eb28e","getAuditLog(bytes32)":"413faf22","getTotalReports()":"d4e99500","isDomainFlagged(bytes32,bytes32[])":"84a8c38c","reportIds(uint256)":"87cc66de","reports(bytes32)":"b39c4897","setBlocklistRoot(bytes32)":"4cd99433","updateStatus(bytes32,uint8)":"054372ed"}}}}}