{
  "_format": "hh-sol-artifact-1",
  "contractName": "ReportRegistry",
  "sourceName": "contracts/ReportRegistry.sol",
  "abi": [
    {
      "anonymous": false,
      "inputs": [
        {
          "indexed": true,
          "internalType": "bytes32",
          "name": "id",
          "type": "bytes32"
        },
        {
          "indexed": false,
          "internalType": "uint8",
          "name": "riskScore",
          "type": "uint8"
        }
      ],
      "name": "HighRiskAlert",
      "type": "event"
    },
    {
      "anonymous": false,
      "inputs": [
        {
          "indexed": true,
          "internalType": "bytes32",
          "name": "id",
          "type": "bytes32"
        },
        {
          "indexed": false,
          "internalType": "uint256",
          "name": "timestamp",
          "type": "uint256"
        },
        {
          "indexed": false,
          "internalType": "uint8",
          "name": "riskScore",
          "type": "uint8"
        },
        {
          "indexed": false,
          "internalType": "string",
          "name": "ipfsHash",
          "type": "string"
        }
      ],
      "name": "ReportFiled",
      "type": "event"
    },
    {
      "anonymous": false,
      "inputs": [
        {
          "indexed": true,
          "internalType": "bytes32",
          "name": "id",
          "type": "bytes32"
        },
        {
          "indexed": false,
          "internalType": "enum ReportRegistry.Status",
          "name": "oldStatus",
          "type": "uint8"
        },
        {
          "indexed": false,
          "internalType": "enum ReportRegistry.Status",
          "name": "newStatus",
          "type": "uint8"
        },
        {
          "indexed": false,
          "internalType": "uint256",
          "name": "blockNumber",
          "type": "uint256"
        }
      ],
      "name": "StatusUpdated",
      "type": "event"
    },
    {
      "inputs": [
        {
          "internalType": "bytes32",
          "name": "",
          "type": "bytes32"
        },
        {
          "internalType": "uint256",
          "name": "",
          "type": "uint256"
        }
      ],
      "name": "auditLog",
      "outputs": [
        {
          "internalType": "enum ReportRegistry.Status",
          "name": "from",
          "type": "uint8"
        },
        {
          "internalType": "enum ReportRegistry.Status",
          "name": "to",
          "type": "uint8"
        },
        {
          "internalType": "uint256",
          "name": "blockNumber",
          "type": "uint256"
        },
        {
          "internalType": "uint256",
          "name": "timestamp",
          "type": "uint256"
        }
      ],
      "stateMutability": "view",
      "type": "function"
    },
    {
      "inputs": [],
      "name": "blocklistMerkleRoot",
      "outputs": [
        {
          "internalType": "bytes32",
          "name": "",
          "type": "bytes32"
        }
      ],
      "stateMutability": "view",
      "type": "function"
    },
    {
      "inputs": [
        {
          "internalType": "string",
          "name": "ipfsHash",
          "type": "string"
        },
        {
          "internalType": "uint8",
          "name": "riskScore",
          "type": "uint8"
        }
      ],
      "name": "fileReport",
      "outputs": [
        {
          "internalType": "bytes32",
          "name": "",
          "type": "bytes32"
        }
      ],
      "stateMutability": "nonpayable",
      "type": "function"
    },
    {
      "inputs": [],
      "name": "getAllReportIds",
      "outputs": [
        {
          "internalType": "bytes32[]",
          "name": "",
          "type": "bytes32[]"
        }
      ],
      "stateMutability": "view",
      "type": "function"
    },
    {
      "inputs": [
        {
          "internalType": "bytes32",
          "name": "id",
          "type": "bytes32"
        }
      ],
      "name": "getAuditLog",
      "outputs": [
        {
          "components": [
            {
              "internalType": "enum ReportRegistry.Status",
              "name": "from",
              "type": "uint8"
            },
            {
              "internalType": "enum ReportRegistry.Status",
              "name": "to",
              "type": "uint8"
            },
            {
              "internalType": "uint256",
              "name": "blockNumber",
              "type": "uint256"
            },
            {
              "internalType": "uint256",
              "name": "timestamp",
              "type": "uint256"
            }
          ],
          "internalType": "struct ReportRegistry.AuditEntry[]",
          "name": "",
          "type": "tuple[]"
        }
      ],
      "stateMutability": "view",
      "type": "function"
    },
    {
      "inputs": [],
      "name": "getTotalReports",
      "outputs": [
        {
          "internalType": "uint256",
          "name": "",
          "type": "uint256"
        }
      ],
      "stateMutability": "view",
      "type": "function"
    },
    {
      "inputs": [
        {
          "internalType": "bytes32",
          "name": "domainHash",
          "type": "bytes32"
        },
        {
          "internalType": "bytes32[]",
          "name": "proof",
          "type": "bytes32[]"
        }
      ],
      "name": "isDomainFlagged",
      "outputs": [
        {
          "internalType": "bool",
          "name": "",
          "type": "bool"
        }
      ],
      "stateMutability": "view",
      "type": "function"
    },
    {
      "inputs": [
        {
          "internalType": "uint256",
          "name": "",
          "type": "uint256"
        }
      ],
      "name": "reportIds",
      "outputs": [
        {
          "internalType": "bytes32",
          "name": "",
          "type": "bytes32"
        }
      ],
      "stateMutability": "view",
      "type": "function"
    },
    {
      "inputs": [
        {
          "internalType": "bytes32",
          "name": "",
          "type": "bytes32"
        }
      ],
      "name": "reports",
      "outputs": [
        {
          "internalType": "bytes32",
          "name": "id",
          "type": "bytes32"
        },
        {
          "internalType": "uint256",
          "name": "timestamp",
          "type": "uint256"
        },
        {
          "internalType": "string",
          "name": "ipfsHash",
          "type": "string"
        },
        {
          "internalType": "uint8",
          "name": "riskScore",
          "type": "uint8"
        },
        {
          "internalType": "enum ReportRegistry.Status",
          "name": "status",
          "type": "uint8"
        },
        {
          "internalType": "bool",
          "name": "exists",
          "type": "bool"
        }
      ],
      "stateMutability": "view",
      "type": "function"
    },
    {
      "inputs": [
        {
          "internalType": "bytes32",
          "name": "root",
          "type": "bytes32"
        }
      ],
      "name": "setBlocklistRoot",
      "outputs": [],
      "stateMutability": "nonpayable",
      "type": "function"
    },
    {
      "inputs": [
        {
          "internalType": "bytes32",
          "name": "id",
          "type": "bytes32"
        },
        {
          "internalType": "enum ReportRegistry.Status",
          "name": "newStatus",
          "type": "uint8"
        }
      ],
      "name": "updateStatus",
      "outputs": [],
      "stateMutability": "nonpayable",
      "type": "function"
    }
  ],
  "bytecode": "0x608060405234801561001057600080fd5b50611985806100206000396000f3fe608060405234801561001057600080fd5b50600436106100a95760003560e01c80636ef520b4116100715780636ef520b41461015257806376b811241461018257806384a8c38c146101b557806387cc66de146101e5578063b39c489714610215578063d4e995001461024a576100a9565b8063054372ed146100ae578063131eb28e146100ca5780632c47ad37146100e8578063413faf22146101065780634cd9943314610136575b600080fd5b6100c860048036038101906100c39190610b7c565b610268565b005b6100d2610466565b6040516100df9190610c7a565b60405180910390f35b6100f06104be565b6040516100fd9190610cab565b60405180910390f35b610120600480360381019061011b9190610cc6565b6104c4565b60405161012d9190610e87565b60405180910390f35b610150600480360381019061014b9190610cc6565b6105c0565b005b61016c60048036038101906101679190610f47565b6105ca565b6040516101799190610cab565b60405180910390f35b61019c60048036038101906101979190610fd3565b6108b1565b6040516101ac9493929190611031565b60405180910390f35b6101cf60048036038101906101ca91906110cc565b610918565b6040516101dc9190611147565b60405180910390f35b6101ff60048036038101906101fa9190611162565b6109fb565b60405161020c9190610cab565b60405180910390f35b61022f600480360381019061022a9190610cc6565b610a1f565b6040516102419695949392919061122e565b60405180910390f35b610252610b0a565b60405161025f9190611296565b60405180910390f35b60008083815260200190815260200160002060030160029054906101000a900460ff166102ca576040517f08c379a00000000000000000000000000000000000000000000000000000000081526004016102c1906112fd565b60405180910390fd5b600080600084815260200190815260200160002060030160019054906101000a900460ff1690508160008085815260200190815260200160002060030160016101000a81548160ff0219169083600381111561032957610328610d1f565b5b021790555060016000848152602001908152602001600020604051806080016040528083600381111561035f5761035e610d1f565b5b815260200184600381111561037757610376610d1f565b5b815260200143815260200142815250908060018154018082558091505060019003906000526020600020906003020160009091909190915060008201518160000160006101000a81548160ff021916908360038111156103da576103d9610d1f565b5b021790555060208201518160000160016101000a81548160ff0219169083600381111561040a57610409610d1f565b5b021790555060408201518160010155606082015181600201555050827f9ef7966ce15872a318ba71ffb271ab358c5847e8022f4121cd3687626b4f33db8284436040516104599392919061131d565b60405180910390a2505050565b606060028054806020026020016040519081016040528092919081815260200182805480156104b457602002820191906000526020600020905b8154815260200190600101908083116104a0575b5050505050905090565b60035481565b606060016000838152602001908152602001600020805480602002602001604051908101604052809291908181526020016000905b828210156105b557838290600052602060002090600302016040518060800160405290816000820160009054906101000a900460ff16600381111561054157610540610d1f565b5b600381111561055357610552610d1f565b5b81526020016000820160019054906101000a900460ff16600381111561057c5761057b610d1f565b5b600381111561058e5761058d610d1f565b5b815260200160018201548152602001600282015481525050815260200190600101906104f9565b505050509050919050565b8060038190555050565b600060648260ff161115610613576040517f08c379a000000000000000000000000000000000000000000000000000000000815260040161060a906113a0565b60405180910390fd5b60004285854460405160200161062c9493929190611420565b60405160208183030381529060405280519060200120905060008082815260200190815260200160002060030160029054906101000a900460ff16156106a7576040517f08c379a000000000000000000000000000000000000000000000000000000000815260040161069e906114a7565b60405180910390fd5b600060558460ff1610156106bc5760006106bf565b60025b90506040518060c0016040528083815260200142815260200187878080601f016020809104026020016040519081016040528093929190818152602001838380828437600081840152601f19601f8201169050808301925050505050505081526020018560ff16815260200182600381111561073e5761073d610d1f565b5b815260200160011515815250600080848152602001908152602001600020600082015181600001556020820151816001015560408201518160020190816107859190611702565b5060608201518160030160006101000a81548160ff021916908360ff16021790555060808201518160030160016101000a81548160ff021916908360038111156107d2576107d1610d1f565b5b021790555060a08201518160030160026101000a81548160ff0219169083151502179055509050506002829080600181540180825580915050600190039060005260206000200160009091909190915055817fc1413a272fa0fdb1b689452b896fca2fb94c160b6f9009640444e639719e2310428689896040516108599493929190611801565b60405180910390a260558460ff16106108a557817f23678b3fd467bd897df163d2b35076cb55e5fef82894fcc85c2b9279c7b3e8988560405161089c9190611841565b60405180910390a25b81925050509392505050565b600160205281600052604060002081815481106108cd57600080fd5b9060005260206000209060030201600091509150508060000160009054906101000a900460ff16908060000160019054906101000a900460ff16908060010154908060020154905084565b60008084905060005b848490508110156109eb5784848281811061093f5761093e61185c565b5b9050602002013582106109935784848281811061095f5761095e61185c565b5b90506020020135826040516020016109789291906118ac565b604051602081830303815290604052805190602001206109d6565b818585838181106109a7576109a661185c565b5b905060200201356040516020016109bf9291906118ac565b604051602081830303815290604052805190602001205b915080806109e390611907565b915050610921565b5060035481149150509392505050565b60028181548110610a0b57600080fd5b906000526020600020016000915090505481565b6000602052806000526040600020600091509050806000015490806001015490806002018054610a4e90611525565b80601f0160208091040260200160405190810160405280929190818152602001828054610a7a90611525565b8015610ac75780601f10610a9c57610100808354040283529160200191610ac7565b820191906000526020600020905b815481529060010190602001808311610aaa57829003601f168201915b5050505050908060030160009054906101000a900460ff16908060030160019054906101000a900460ff16908060030160029054906101000a900460ff16905086565b6000600280549050905090565b600080fd5b600080fd5b6000819050919050565b610b3481610b21565b8114610b3f57600080fd5b50565b600081359050610b5181610b2b565b92915050565b60048110610b6457600080fd5b50565b600081359050610b7681610b57565b92915050565b60008060408385031215610b9357610b92610b17565b5b6000610ba185828601610b42565b9250506020610bb285828601610b67565b9150509250929050565b600081519050919050565b600082825260208201905092915050565b6000819050602082019050919050565b610bf181610b21565b82525050565b6000610c038383610be8565b60208301905092915050565b6000602082019050919050565b6000610c2782610bbc565b610c318185610bc7565b9350610c3c83610bd8565b8060005b83811015610c6d578151610c548882610bf7565b9750610c5f83610c0f565b925050600181019050610c40565b5085935050505092915050565b60006020820190508181036000830152610c948184610c1c565b905092915050565b610ca581610b21565b82525050565b6000602082019050610cc06000830184610c9c565b92915050565b600060208284031215610cdc57610cdb610b17565b5b6000610cea84828501610b42565b91505092915050565b600081519050919050565b600082825260208201905092915050565b6000819050602082019050919050565b7f4e487b7100000000000000000000000000000000000000000000000000000000600052602160045260246000fd5b60048110610d5f57610d5e610d1f565b5b50565b6000819050610d7082610d4e565b919050565b6000610d8082610d62565b9050919050565b610d9081610d75565b82525050565b6000819050919050565b610da981610d96565b82525050565b608082016000820151610dc56000850182610d87565b506020820151610dd86020850182610d87565b506040820151610deb6040850182610da0565b506060820151610dfe6060850182610da0565b50505050565b6000610e108383610daf565b60808301905092915050565b6000602082019050919050565b6000610e3482610cf3565b610e3e8185610cfe565b9350610e4983610d0f565b8060005b83811015610e7a578151610e618882610e04565b9750610e6c83610e1c565b925050600181019050610e4d565b5085935050505092915050565b60006020820190508181036000830152610ea18184610e29565b905092915050565b600080fd5b600080fd5b600080fd5b60008083601f840112610ece57610ecd610ea9565b5b8235905067ffffffffffffffff811115610eeb57610eea610eae565b5b602083019150836001820283011115610f0757610f06610eb3565b5b9250929050565b600060ff82169050919050565b610f2481610f0e565b8114610f2f57600080fd5b50565b600081359050610f4181610f1b565b92915050565b600080600060408486031215610f6057610f5f610b17565b5b600084013567ffffffffffffffff811115610f7e57610f7d610b1c565b5b610f8a86828701610eb8565b93509350506020610f9d86828701610f32565b9150509250925092565b610fb081610d96565b8114610fbb57600080fd5b50565b600081359050610fcd81610fa7565b92915050565b60008060408385031215610fea57610fe9610b17565b5b6000610ff885828601610b42565b925050602061100985828601610fbe565b9150509250929050565b61101c81610d75565b82525050565b61102b81610d96565b82525050565b60006080820190506110466000830187611013565b6110536020830186611013565b6110606040830185611022565b61106d6060830184611022565b95945050505050565b60008083601f84011261108c5761108b610ea9565b5b8235905067ffffffffffffffff8111156110a9576110a8610eae565b5b6020830191508360208202830111156110c5576110c4610eb3565b5b9250929050565b6000806000604084860312156110e5576110e4610b17565b5b60006110f386828701610b42565b935050602084013567ffffffffffffffff81111561111457611113610b1c565b5b61112086828701611076565b92509250509250925092565b60008115159050919050565b6111418161112c565b82525050565b600060208201905061115c6000830184611138565b92915050565b60006020828403121561117857611177610b17565b5b600061118684828501610fbe565b91505092915050565b600081519050919050565b600082825260208201905092915050565b60005b838110156111c95780820151818401526020810190506111ae565b60008484015250505050565b6000601f19601f8301169050919050565b60006111f18261118f565b6111fb818561119a565b935061120b8185602086016111ab565b611214816111d5565b840191505092915050565b61122881610f0e565b82525050565b600060c0820190506112436000830189610c9c565b6112506020830188611022565b818103604083015261126281876111e6565b9050611271606083018661121f565b61127e6080830185611013565b61128b60a0830184611138565b979650505050505050565b60006020820190506112ab6000830184611022565b92915050565b7f5265706f7274206e6f7420666f756e6400000000000000000000000000000000600082015250565b60006112e760108361119a565b91506112f2826112b1565b602082019050919050565b60006020820190508181036000830152611316816112da565b9050919050565b60006060820190506113326000830186611013565b61133f6020830185611013565b61134c6040830184611022565b949350505050565b7f53636f7265206f7574206f662072616e67650000000000000000000000000000600082015250565b600061138a60128361119a565b915061139582611354565b602082019050919050565b600060208201905081810360008301526113b98161137d565b9050919050565b6000819050919050565b6113db6113d682610d96565b6113c0565b82525050565b600081905092915050565b82818337600083830152505050565b600061140783856113e1565b93506114148385846113ec565b82840190509392505050565b600061142c82876113ca565b60208201915061143d8285876113fb565b915061144982846113ca565b60208201915081905095945050505050565b7f4475706c6963617465207265706f727400000000000000000000000000000000600082015250565b600061149160108361119a565b915061149c8261145b565b602082019050919050565b600060208201905081810360008301526114c081611484565b9050919050565b7f4e487b7100000000000000000000000000000000000000000000000000000000600052604160045260246000fd5b7f4e487b7100000000000000000000000000000000000000000000000000000000600052602260045260246000fd5b6000600282049050600182168061153d57607f821691505b6020821081036115505761154f6114f6565b5b50919050565b60008190508160005260206000209050919050565b60006020601f8301049050919050565b600082821b905092915050565b6000600883026115b87fffffffffffffffffffffffffffffffffffffffffffffffffffffffffffffffff8261157b565b6115c2868361157b565b95508019841693508086168417925050509392505050565b6000819050919050565b60006115ff6115fa6115f584610d96565b6115da565b610d96565b9050919050565b6000819050919050565b611619836115e4565b61162d61162582611606565b848454611588565b825550505050565b600090565b611642611635565b61164d818484611610565b505050565b5b818110156116715761166660008261163a565b600181019050611653565b5050565b601f8211156116b65761168781611556565b6116908461156b565b8101602085101561169f578190505b6116b36116ab8561156b565b830182611652565b50505b505050565b600082821c905092915050565b60006116d9600019846008026116bb565b1980831691505092915050565b60006116f283836116c8565b9150826002028217905092915050565b61170b8261118f565b67ffffffffffffffff811115611724576117236114c7565b5b61172e8254611525565b611739828285611675565b600060209050601f83116001811461176c576000841561175a578287015190505b61176485826116e6565b8655506117cc565b601f19841661177a86611556565b60005b828110156117a25784890151825560018201915060208501945060208101905061177d565b868310156117bf57848901516117bb601f8916826116c8565b8355505b6001600288020188555050505b505050505050565b60006117e0838561119a565b93506117ed8385846113ec565b6117f6836111d5565b840190509392505050565b60006060820190506118166000830187611022565b611823602083018661121f565b81810360408301526118368184866117d4565b905095945050505050565b6000602082019050611856600083018461121f565b92915050565b7f4e487b7100000000000000000000000000000000000000000000000000000000600052603260045260246000fd5b6000819050919050565b6118a66118a182610b21565b61188b565b82525050565b60006118b88285611895565b6020820191506118c88284611895565b6020820191508190509392505050565b7f4e487b7100000000000000000000000000000000000000000000000000000000600052601160045260246000fd5b600061191282610d96565b91507fffffffffffffffffffffffffffffffffffffffffffffffffffffffffffffffff8203611944576119436118d8565b5b60018201905091905056fea26469706673582212207d862f8cd93d952f3d9230175d490d655990f1ab49f13f5d9f04df6a28ca305764736f6c63430008130033",
  "linkReferences": {},
  "deployedLinkReferences": {}
}